{
  "_format": "hh-sol-artifact-1",
  "contractName": "DataRegistry",
  "sourceName": "contracts/DataRegistry.sol",
  "abi": [
    {
      "inputs": [],
      "stateMutability": "nonpayable",
      "type": "constructor"
    },
    {
      "inputs": [
        {
          "internalType": "address",
          "name": "owner",
          "type": "address"
        }
      ],
      "name": "OwnableInvalidOwner",
      "type": "error"
    },
    {
      "inputs": [
        {
          "internalType": "address",
          "name": "account",
          "type": "address"
        }
      ],
      "name": "OwnableUnauthorizedAccount",
      "type": "error"
    },
    {
      "anonymous": false,
      "inputs": [
        {
          "indexed": true,
          "internalType": "uint256",
          "name": "dataId",
          "type": "uint256"
        },
        {
          "indexed": true,
          "internalType": "address",
          "name": "owner",
          "type": "address"
        },
        {
          "indexed": true,
          "internalType": "address",
          "name": "grantee",
          "type": "address"
        }
      ],
      "name": "AccessGranted",
      "type": "event"
    },
    {
      "anonymous": false,
      "inputs": [
        {
          "indexed": true,
          "internalType": "uint256",
          "name": "dataId",
          "type": "uint256"
        },
        {
          "indexed": true,
          "internalType": "address",
          "name": "owner",
          "type": "address"
        },
        {
          "indexed": true,
          "internalType": "address",
          "name": "grantee",
          "type": "address"
        }
      ],
      "name": "AccessRevoked",
      "type": "event"
    },
    {
      "anonymous": false,
      "inputs": [
        {
          "indexed": true,
          "internalType": "uint256",
          "name": "dataId",
          "type": "uint256"
        },
        {
          "indexed": true,
          "internalType": "address",
          "name": "owner",
          "type": "address"
        },
        {
          "indexed": false,
          "internalType": "bytes32",
          "name": "dataHash",
          "type": "bytes32"
        },
        {
          "indexed": false,
          "internalType": "string",
          "name": "dataType",
          "type": "string"
        },
        {
          "indexed": false,
          "internalType": "string",
          "name": "uri",
          "type": "string"
        }
      ],
      "name": "DataRegistered",
      "type": "event"
    },
    {
      "anonymous": false,
      "inputs": [
        {
          "indexed": true,
          "internalType": "address",
          "name": "marketplace",
          "type": "address"
        }
      ],
      "name": "MarketplaceSet",
      "type": "event"
    },
    {
      "anonymous": false,
      "inputs": [
        {
          "indexed": true,
          "internalType": "address",
          "name": "previousOwner",
          "type": "address"
        },
        {
          "indexed": true,
          "internalType": "address",
          "name": "newOwner",
          "type": "address"
        }
      ],
      "name": "OwnershipTransferred",
      "type": "event"
    },
    {
      "inputs": [
        {
          "internalType": "uint256",
          "name": "dataId",
          "type": "uint256"
        },
        {
          "internalType": "address",
          "name": "user",
          "type": "address"
        }
      ],
      "name": "canAccess",
      "outputs": [
        {
          "internalType": "bool",
          "name": "",
          "type": "bool"
        }
      ],
      "stateMutability": "view",
      "type": "function"
    },
    {
      "inputs": [
        {
          "internalType": "uint256",
          "name": "dataId",
          "type": "uint256"
        },
        {
          "internalType": "address",
          "name": "grantee",
          "type": "address"
        }
      ],
      "name": "grantAccess",
      "outputs": [],
      "stateMutability": "nonpayable",
      "type": "function"
    },
    {
      "inputs": [
        {
          "internalType": "uint256",
          "name": "",
          "type": "uint256"
        },
        {
          "internalType": "address",
          "name": "",
          "type": "address"
        }
      ],
      "name": "hasAccess",
      "outputs": [
        {
          "internalType": "bool",
          "name": "",
          "type": "bool"
        }
      ],
      "stateMutability": "view",
      "type": "function"
    },
    {
      "inputs": [],
      "name": "marketplace",
      "outputs": [
        {
          "internalType": "address",
          "name": "",
          "type": "address"
        }
      ],
      "stateMutability": "view",
      "type": "function"
    },
    {
      "inputs": [],
      "name": "nextDataId",
      "outputs": [
        {
          "internalType": "uint256",
          "name": "",
          "type": "uint256"
        }
      ],
      "stateMutability": "view",
      "type": "function"
    },
    {
      "inputs": [],
      "name": "owner",
      "outputs": [
        {
          "internalType": "address",
          "name": "",
          "type": "address"
        }
      ],
      "stateMutability": "view",
      "type": "function"
    },
    {
      "inputs": [
        {
          "internalType": "uint256",
          "name": "",
          "type": "uint256"
        }
      ],
      "name": "records",
      "outputs": [
        {
          "internalType": "address",
          "name": "owner",
          "type": "address"
        },
        {
          "internalType": "bytes32",
          "name": "dataHash",
          "type": "bytes32"
        },
        {
          "internalType": "string",
          "name": "dataType",
          "type": "string"
        },
        {
          "internalType": "string",
          "name": "uri",
          "type": "string"
        },
        {
          "internalType": "uint64",
          "name": "createdAt",
          "type": "uint64"
        }
      ],
      "stateMutability": "view",
      "type": "function"
    },
    {
      "inputs": [
        {
          "internalType": "bytes32",
          "name": "dataHash",
          "type": "bytes32"
        },
        {
          "internalType": "string",
          "name": "dataType",
          "type": "string"
        },
        {
          "internalType": "string",
          "name": "uri",
          "type": "string"
        }
      ],
      "name": "registerData",
      "outputs": [
        {
          "internalType": "uint256",
          "name": "",
          "type": "uint256"
        }
      ],
      "stateMutability": "nonpayable",
      "type": "function"
    },
    {
      "inputs": [],
      "name": "renounceOwnership",
      "outputs": [],
      "stateMutability": "nonpayable",
      "type": "function"
    },
    {
      "inputs": [
        {
          "internalType": "uint256",
          "name": "dataId",
          "type": "uint256"
        },
        {
          "internalType": "address",
          "name": "grantee",
          "type": "address"
        }
      ],
      "name": "revokeAccess",
      "outputs": [],
      "stateMutability": "nonpayable",
      "type": "function"
    },
    {
      "inputs": [
        {
          "internalType": "address",
          "name": "_marketplace",
          "type": "address"
        }
      ],
      "name": "setMarketplace",
      "outputs": [],
      "stateMutability": "nonpayable",
      "type": "function"
    },
    {
      "inputs": [
        {
          "internalType": "address",
          "name": "newOwner",
          "type": "address"
        }
      ],
      "name": "transferOwnership",
      "outputs": [],
      "stateMutability": "nonpayable",
      "type": "function"
    }
  ],
  "bytecode": "0x60806040523480156200001157600080fd5b5033600073ffffffffffffffffffffffffffffffffffffffff168173ffffffffffffffffffffffffffffffffffffffff1603620000885760006040517f1e4fbdf70000000000000000000000000000000000000000000000000000000081526004016200007f9190620001a9565b60405180910390fd5b6200009981620000a060201b60201c565b50620001c6565b60008060009054906101000a900473ffffffffffffffffffffffffffffffffffffffff169050816000806101000a81548173ffffffffffffffffffffffffffffffffffffffff021916908373ffffffffffffffffffffffffffffffffffffffff1602179055508173ffffffffffffffffffffffffffffffffffffffff168173ffffffffffffffffffffffffffffffffffffffff167f8be0079c531659141344cd1fd0a4f28419497f9722a3daafe3b4186f6b6457e060405160405180910390a35050565b600073ffffffffffffffffffffffffffffffffffffffff82169050919050565b6000620001918262000164565b9050919050565b620001a38162000184565b82525050565b6000602082019050620001c0600083018462000198565b92915050565b611bd380620001d66000396000f3fe608060405234801561001057600080fd5b50600436106100b45760003560e01c8063abc8c7af11610071578063abc8c7af1461016b578063ced1419814610189578063d5b2d1ed146101b9578063d9a5ec1b146101e9578063e38ade8b14610205578063f2fde38b14610235576100b4565b806334461067146100b957806365dd152c146100ed578063715018a61461010957806373ad6c2d146101135780638b4ce2dd1461012f5780638da5cb5b1461014d575b600080fd5b6100d360048036038101906100ce91906111a3565b610251565b6040516100e49594939291906112dd565b60405180910390f35b6101076004803603810190610102919061136a565b6103cb565b005b61011161063c565b005b61012d600480360381019061012891906113aa565b610650565b005b61013761074e565b60405161014491906113e6565b60405180910390f35b610155610754565b6040516101629190611401565b60405180910390f35b61017361077d565b6040516101809190611401565b60405180910390f35b6101a3600480360381019061019e919061136a565b6107a3565b6040516101b09190611437565b60405180910390f35b6101d360048036038101906101ce919061136a565b6107d2565b6040516101e09190611437565b60405180910390f35b61020360048036038101906101fe919061136a565b610a96565b005b61021f600480360381019061021a91906114e3565b610d35565b60405161022c91906113e6565b60405180910390f35b61024f600480360381019061024a91906113aa565b610f8a565b005b60026020528060005260406000206000915090508060000160009054906101000a900473ffffffffffffffffffffffffffffffffffffffff16908060010154908060020180546102a0906115a7565b80601f01602080910402602001604051908101604052809291908181526020018280546102cc906115a7565b80156103195780601f106102ee57610100808354040283529160200191610319565b820191906000526020600020905b8154815290600101906020018083116102fc57829003601f168201915b50505050509080600301805461032e906115a7565b80601f016020809104026020016040519081016040528092919081815260200182805461035a906115a7565b80156103a75780601f1061037c576101008083540402835291602001916103a7565b820191906000526020600020905b81548152906001019060200180831161038a57829003601f168201915b5050505050908060040160009054906101000a900467ffffffffffffffff16905085565b8160006002600083815260200190815260200160002060000160009054906101000a900473ffffffffffffffffffffffffffffffffffffffff1690508073ffffffffffffffffffffffffffffffffffffffff163373ffffffffffffffffffffffffffffffffffffffff16148061048e5750600460009054906101000a900473ffffffffffffffffffffffffffffffffffffffff1673ffffffffffffffffffffffffffffffffffffffff163373ffffffffffffffffffffffffffffffffffffffff16145b6104cd576040517f08c379a00000000000000000000000000000000000000000000000000000000081526004016104c490611624565b60405180910390fd5b600073ffffffffffffffffffffffffffffffffffffffff168373ffffffffffffffffffffffffffffffffffffffff160361053c576040517f08c379a000000000000000000000000000000000000000000000000000000000815260040161053390611690565b60405180910390fd5b60016003600086815260200190815260200160002060008573ffffffffffffffffffffffffffffffffffffffff1673ffffffffffffffffffffffffffffffffffffffff16815260200190815260200160002060006101000a81548160ff0219169083151502179055508273ffffffffffffffffffffffffffffffffffffffff166002600086815260200190815260200160002060000160009054906101000a900473ffffffffffffffffffffffffffffffffffffffff1673ffffffffffffffffffffffffffffffffffffffff16857f97a8264d9d0b9e21370349f9b49be012a5d1e27829879df8ba166dba48f898c660405160405180910390a450505050565b610644611010565b61064e6000611097565b565b610658611010565b600073ffffffffffffffffffffffffffffffffffffffff168173ffffffffffffffffffffffffffffffffffffffff16036106c7576040517f08c379a00000000000000000000000000000000000000000000000000000000081526004016106be906116fc565b60405180910390fd5b80600460006101000a81548173ffffffffffffffffffffffffffffffffffffffff021916908373ffffffffffffffffffffffffffffffffffffffff1602179055508073ffffffffffffffffffffffffffffffffffffffff167f78fd71746fd8724dd16b5a93e765a076614159ebdc73d996a6a8884f358898e560405160405180910390a250565b60015481565b60008060009054906101000a900473ffffffffffffffffffffffffffffffffffffffff16905090565b600460009054906101000a900473ffffffffffffffffffffffffffffffffffffffff1681565b60036020528160005260406000206020528060005260406000206000915091509054906101000a900460ff1681565b600080600260008581526020019081526020016000206040518060a00160405290816000820160009054906101000a900473ffffffffffffffffffffffffffffffffffffffff1673ffffffffffffffffffffffffffffffffffffffff1673ffffffffffffffffffffffffffffffffffffffff16815260200160018201548152602001600282018054610863906115a7565b80601f016020809104026020016040519081016040528092919081815260200182805461088f906115a7565b80156108dc5780601f106108b1576101008083540402835291602001916108dc565b820191906000526020600020905b8154815290600101906020018083116108bf57829003601f168201915b505050505081526020016003820180546108f5906115a7565b80601f0160208091040260200160405190810160405280929190818152602001828054610921906115a7565b801561096e5780601f106109435761010080835404028352916020019161096e565b820191906000526020600020905b81548152906001019060200180831161095157829003601f168201915b505050505081526020016004820160009054906101000a900467ffffffffffffffff1667ffffffffffffffff1667ffffffffffffffff16815250509050600073ffffffffffffffffffffffffffffffffffffffff16816000015173ffffffffffffffffffffffffffffffffffffffff16036109ed576000915050610a90565b806000015173ffffffffffffffffffffffffffffffffffffffff168373ffffffffffffffffffffffffffffffffffffffff1603610a2e576001915050610a90565b6003600085815260200190815260200160002060008473ffffffffffffffffffffffffffffffffffffffff1673ffffffffffffffffffffffffffffffffffffffff16815260200190815260200160002060009054906101000a900460ff169150505b92915050565b8160006002600083815260200190815260200160002060000160009054906101000a900473ffffffffffffffffffffffffffffffffffffffff1690508073ffffffffffffffffffffffffffffffffffffffff163373ffffffffffffffffffffffffffffffffffffffff161480610b595750600460009054906101000a900473ffffffffffffffffffffffffffffffffffffffff1673ffffffffffffffffffffffffffffffffffffffff163373ffffffffffffffffffffffffffffffffffffffff16145b610b98576040517f08c379a0000000000000000000000000000000000000000000000000000000008152600401610b8f90611624565b60405180910390fd5b6003600085815260200190815260200160002060008473ffffffffffffffffffffffffffffffffffffffff1673ffffffffffffffffffffffffffffffffffffffff16815260200190815260200160002060009054906101000a900460ff16610c35576040517f08c379a0000000000000000000000000000000000000000000000000000000008152600401610c2c90611768565b60405180910390fd5b60006003600086815260200190815260200160002060008573ffffffffffffffffffffffffffffffffffffffff1673ffffffffffffffffffffffffffffffffffffffff16815260200190815260200160002060006101000a81548160ff0219169083151502179055508273ffffffffffffffffffffffffffffffffffffffff166002600086815260200190815260200160002060000160009054906101000a900473ffffffffffffffffffffffffffffffffffffffff1673ffffffffffffffffffffffffffffffffffffffff16857f260547d4038414ef72f081dcde91825693dff9bc433178f3e92ad36e0cd2275060405160405180910390a450505050565b60008060001b8603610d7c576040517f08c379a0000000000000000000000000000000000000000000000000000000008152600401610d73906117d4565b60405180910390fd5b6000600160008154610d8d90611823565b91905081905590506040518060a001604052803373ffffffffffffffffffffffffffffffffffffffff16815260200188815260200187878080601f016020809104026020016040519081016040528093929190818152602001838380828437600081840152601f19601f82011690508083019250505050505050815260200185858080601f016020809104026020016040519081016040528093929190818152602001838380828437600081840152601f19601f8201169050808301925050505050505081526020014267ffffffffffffffff168152506002600083815260200190815260200160002060008201518160000160006101000a81548173ffffffffffffffffffffffffffffffffffffffff021916908373ffffffffffffffffffffffffffffffffffffffff160217905550602082015181600101556040820151816002019081610edd9190611a46565b506060820151816003019081610ef39190611a46565b5060808201518160040160006101000a81548167ffffffffffffffff021916908367ffffffffffffffff1602179055509050503373ffffffffffffffffffffffffffffffffffffffff16817f1d17c841cc516b3040da61694326127fa3f4f9e1391daf09d395a6b28f42bce48989898989604051610f75959493929190611b54565b60405180910390a38091505095945050505050565b610f92611010565b600073ffffffffffffffffffffffffffffffffffffffff168173ffffffffffffffffffffffffffffffffffffffff16036110045760006040517f1e4fbdf7000000000000000000000000000000000000000000000000000000008152600401610ffb9190611401565b60405180910390fd5b61100d81611097565b50565b61101861115b565b73ffffffffffffffffffffffffffffffffffffffff16611036610754565b73ffffffffffffffffffffffffffffffffffffffff16146110955761105961115b565b6040517f118cdaa700000000000000000000000000000000000000000000000000000000815260040161108c9190611401565b60405180910390fd5b565b60008060009054906101000a900473ffffffffffffffffffffffffffffffffffffffff169050816000806101000a81548173ffffffffffffffffffffffffffffffffffffffff021916908373ffffffffffffffffffffffffffffffffffffffff1602179055508173ffffffffffffffffffffffffffffffffffffffff168173ffffffffffffffffffffffffffffffffffffffff167f8be0079c531659141344cd1fd0a4f28419497f9722a3daafe3b4186f6b6457e060405160405180910390a35050565b600033905090565b600080fd5b600080fd5b6000819050919050565b6111808161116d565b811461118b57600080fd5b50565b60008135905061119d81611177565b92915050565b6000602082840312156111b9576111b8611163565b5b60006111c78482850161118e565b91505092915050565b600073ffffffffffffffffffffffffffffffffffffffff82169050919050565b60006111fb826111d0565b9050919050565b61120b816111f0565b82525050565b6000819050919050565b61122481611211565b82525050565b600081519050919050565b600082825260208201905092915050565b60005b83811015611264578082015181840152602081019050611249565b60008484015250505050565b6000601f19601f8301169050919050565b600061128c8261122a565b6112968185611235565b93506112a6818560208601611246565b6112af81611270565b840191505092915050565b600067ffffffffffffffff82169050919050565b6112d7816112ba565b82525050565b600060a0820190506112f26000830188611202565b6112ff602083018761121b565b81810360408301526113118186611281565b905081810360608301526113258185611281565b905061133460808301846112ce565b9695505050505050565b611347816111f0565b811461135257600080fd5b50565b6000813590506113648161133e565b92915050565b6000806040838503121561138157611380611163565b5b600061138f8582860161118e565b92505060206113a085828601611355565b9150509250929050565b6000602082840312156113c0576113bf611163565b5b60006113ce84828501611355565b91505092915050565b6113e08161116d565b82525050565b60006020820190506113fb60008301846113d7565b92915050565b60006020820190506114166000830184611202565b92915050565b60008115159050919050565b6114318161141c565b82525050565b600060208201905061144c6000830184611428565b92915050565b61145b81611211565b811461146657600080fd5b50565b60008135905061147881611452565b92915050565b600080fd5b600080fd5b600080fd5b60008083601f8401126114a3576114a261147e565b5b8235905067ffffffffffffffff8111156114c0576114bf611483565b5b6020830191508360018202830111156114dc576114db611488565b5b9250929050565b6000806000806000606086880312156114ff576114fe611163565b5b600061150d88828901611469565b955050602086013567ffffffffffffffff81111561152e5761152d611168565b5b61153a8882890161148d565b9450945050604086013567ffffffffffffffff81111561155d5761155c611168565b5b6115698882890161148d565b92509250509295509295909350565b7f4e487b7100000000000000000000000000000000000000000000000000000000600052602260045260246000fd5b600060028204905060018216806115bf57607f821691505b6020821081036115d2576115d1611578565b5b50919050565b7f4e6f742064617461206f776e6572000000000000000000000000000000000000600082015250565b600061160e600e83611235565b9150611619826115d8565b602082019050919050565b6000602082019050818103600083015261163d81611601565b9050919050565b7f496e76616c6964206772616e7465650000000000000000000000000000000000600082015250565b600061167a600f83611235565b915061168582611644565b602082019050919050565b600060208201905081810360008301526116a98161166d565b9050919050565b7f496e76616c6964206d61726b6574706c61636500000000000000000000000000600082015250565b60006116e6601383611235565b91506116f1826116b0565b602082019050919050565b60006020820190508181036000830152611715816116d9565b9050919050565b7f4e6f2061636365737320746f207265766f6b6500000000000000000000000000600082015250565b6000611752601383611235565b915061175d8261171c565b602082019050919050565b6000602082019050818103600083015261178181611745565b9050919050565b7f496e76616c696420646174612068617368000000000000000000000000000000600082015250565b60006117be601183611235565b91506117c982611788565b602082019050919050565b600060208201905081810360008301526117ed816117b1565b9050919050565b7f4e487b7100000000000000000000000000000000000000000000000000000000600052601160045260246000fd5b600061182e8261116d565b91507fffffffffffffffffffffffffffffffffffffffffffffffffffffffffffffffff82036118605761185f6117f4565b5b600182019050919050565b7f4e487b7100000000000000000000000000000000000000000000000000000000600052604160045260246000fd5b60008190508160005260206000209050919050565b60006020601f8301049050919050565b600082821b905092915050565b6000600883026118fc7fffffffffffffffffffffffffffffffffffffffffffffffffffffffffffffffff826118bf565b61190686836118bf565b95508019841693508086168417925050509392505050565b6000819050919050565b600061194361193e6119398461116d565b61191e565b61116d565b9050919050565b6000819050919050565b61195d83611928565b6119716119698261194a565b8484546118cc565b825550505050565b600090565b611986611979565b611991818484611954565b505050565b5b818110156119b5576119aa60008261197e565b600181019050611997565b5050565b601f8211156119fa576119cb8161189a565b6119d4846118af565b810160208510156119e3578190505b6119f76119ef856118af565b830182611996565b50505b505050565b600082821c905092915050565b6000611a1d600019846008026119ff565b1980831691505092915050565b6000611a368383611a0c565b9150826002028217905092915050565b611a4f8261122a565b67ffffffffffffffff811115611a6857611a6761186b565b5b611a7282546115a7565b611a7d8282856119b9565b600060209050601f831160018114611ab05760008415611a9e578287015190505b611aa88582611a2a565b865550611b10565b601f198416611abe8661189a565b60005b82811015611ae657848901518255600182019150602085019450602081019050611ac1565b86831015611b035784890151611aff601f891682611a0c565b8355505b6001600288020188555050505b505050505050565b82818337600083830152505050565b6000611b338385611235565b9350611b40838584611b18565b611b4983611270565b840190509392505050565b6000606082019050611b69600083018861121b565b8181036020830152611b7c818688611b27565b90508181036040830152611b91818486611b27565b9050969550505050505056fea2646970667358221220ba0879fa72462aecd86fc5d697de471ea524abcdd2d42ad00c4ea3deea2de40764736f6c63430008140033",
  "linkReferences": {},
  "deployedLinkReferences": {}
}