{
  "_format": "hh-sol-artifact-1",
  "contractName": "DataRegistry",
  "sourceName": "contracts/DataRegistry.sol",
  "abi": [
    {
      "inputs": [],
      "stateMutability": "nonpayable",
      "type": "constructor"
    },
    {
      "inputs": [
        {
          "internalType": "address",
          "name": "owner",
          "type": "address"
        }
      ],
      "name": "OwnableInvalidOwner",
      "type": "error"
    },
    {
      "inputs": [
        {
          "internalType": "address",
          "name": "account",
          "type": "address"
        }
      ],
      "name": "OwnableUnauthorizedAccount",
      "type": "error"
    },
    {
      "anonymous": false,
      "inputs": [
        {
          "indexed": true,
          "internalType": "uint256",
          "name": "dataAddr",
          "type": "uint256"
        },
        {
          "indexed": true,
          "internalType": "address",
          "name": "provider",
          "type": "address"
        },
        {
          "indexed": true,
          "internalType": "address",
          "name": "grantee",
          "type": "address"
        }
      ],
      "name": "AccessGranted",
      "type": "event"
    },
    {
      "anonymous": false,
      "inputs": [
        {
          "indexed": true,
          "internalType": "uint256",
          "name": "dataAddr",
          "type": "uint256"
        },
        {
          "indexed": true,
          "internalType": "address",
          "name": "provider",
          "type": "address"
        },
        {
          "indexed": true,
          "internalType": "address",
          "name": "grantee",
          "type": "address"
        }
      ],
      "name": "AccessRevoked",
      "type": "event"
    },
    {
      "anonymous": false,
      "inputs": [
        {
          "indexed": true,
          "internalType": "uint256",
          "name": "dataAddr",
          "type": "uint256"
        },
        {
          "indexed": true,
          "internalType": "address",
          "name": "provider",
          "type": "address"
        },
        {
          "indexed": false,
          "internalType": "bytes32",
          "name": "dataHash",
          "type": "bytes32"
        },
        {
          "indexed": false,
          "internalType": "string",
          "name": "dataType",
          "type": "string"
        },
        {
          "indexed": false,
          "internalType": "string",
          "name": "uri",
          "type": "string"
        },
        {
          "indexed": false,
          "internalType": "bool",
          "name": "hasMetrics",
          "type": "bool"
        }
      ],
      "name": "DataRegistered",
      "type": "event"
    },
    {
      "anonymous": false,
      "inputs": [
        {
          "indexed": true,
          "internalType": "address",
          "name": "marketplace",
          "type": "address"
        }
      ],
      "name": "MarketplaceSet",
      "type": "event"
    },
    {
      "anonymous": false,
      "inputs": [
        {
          "indexed": true,
          "internalType": "address",
          "name": "previousOwner",
          "type": "address"
        },
        {
          "indexed": true,
          "internalType": "address",
          "name": "newOwner",
          "type": "address"
        }
      ],
      "name": "OwnershipTransferred",
      "type": "event"
    },
    {
      "inputs": [
        {
          "internalType": "uint256",
          "name": "dataAddr",
          "type": "uint256"
        },
        {
          "internalType": "address",
          "name": "user",
          "type": "address"
        }
      ],
      "name": "canAccess",
      "outputs": [
        {
          "internalType": "bool",
          "name": "",
          "type": "bool"
        }
      ],
      "stateMutability": "view",
      "type": "function"
    },
    {
      "inputs": [
        {
          "internalType": "uint256",
          "name": "dataAddr",
          "type": "uint256"
        }
      ],
      "name": "getHealthMetrics",
      "outputs": [
        {
          "internalType": "uint256",
          "name": "steps",
          "type": "uint256"
        },
        {
          "internalType": "uint256",
          "name": "heartRate",
          "type": "uint256"
        },
        {
          "internalType": "uint256",
          "name": "sleepMinutes",
          "type": "uint256"
        },
        {
          "internalType": "uint256",
          "name": "calories",
          "type": "uint256"
        },
        {
          "internalType": "uint256",
          "name": "distance",
          "type": "uint256"
        },
        {
          "internalType": "uint256",
          "name": "activeMinutes",
          "type": "uint256"
        },
        {
          "internalType": "string",
          "name": "metricType",
          "type": "string"
        },
        {
          "internalType": "bool",
          "name": "hasMetrics",
          "type": "bool"
        }
      ],
      "stateMutability": "view",
      "type": "function"
    },
    {
      "inputs": [
        {
          "internalType": "uint256",
          "name": "dataAddr",
          "type": "uint256"
        }
      ],
      "name": "getProviderFromDataAddr",
      "outputs": [
        {
          "internalType": "address",
          "name": "",
          "type": "address"
        }
      ],
      "stateMutability": "pure",
      "type": "function"
    },
    {
      "inputs": [
        {
          "internalType": "address",
          "name": "user",
          "type": "address"
        }
      ],
      "name": "getUserDataAddrs",
      "outputs": [
        {
          "internalType": "uint256[]",
          "name": "",
          "type": "uint256[]"
        }
      ],
      "stateMutability": "view",
      "type": "function"
    },
    {
      "inputs": [
        {
          "internalType": "uint256",
          "name": "dataAddr",
          "type": "uint256"
        }
      ],
      "name": "getUserDataIndex",
      "outputs": [
        {
          "internalType": "uint256",
          "name": "",
          "type": "uint256"
        }
      ],
      "stateMutability": "pure",
      "type": "function"
    },
    {
      "inputs": [
        {
          "internalType": "address",
          "name": "user",
          "type": "address"
        }
      ],
      "name": "getUserIndices",
      "outputs": [
        {
          "internalType": "uint256[]",
          "name": "",
          "type": "uint256[]"
        }
      ],
      "stateMutability": "view",
      "type": "function"
    },
    {
      "inputs": [
        {
          "internalType": "uint256",
          "name": "dataAddr",
          "type": "uint256"
        },
        {
          "internalType": "address",
          "name": "grantee",
          "type": "address"
        }
      ],
      "name": "grantAccess",
      "outputs": [],
      "stateMutability": "nonpayable",
      "type": "function"
    },
    {
      "inputs": [
        {
          "internalType": "uint256",
          "name": "",
          "type": "uint256"
        },
        {
          "internalType": "address",
          "name": "",
          "type": "address"
        }
      ],
      "name": "hasAccess",
      "outputs": [
        {
          "internalType": "bool",
          "name": "",
          "type": "bool"
        }
      ],
      "stateMutability": "view",
      "type": "function"
    },
    {
      "inputs": [],
      "name": "marketplace",
      "outputs": [
        {
          "internalType": "address",
          "name": "",
          "type": "address"
        }
      ],
      "stateMutability": "view",
      "type": "function"
    },
    {
      "inputs": [],
      "name": "owner",
      "outputs": [
        {
          "internalType": "address",
          "name": "",
          "type": "address"
        }
      ],
      "stateMutability": "view",
      "type": "function"
    },
    {
      "inputs": [
        {
          "internalType": "uint256",
          "name": "",
          "type": "uint256"
        }
      ],
      "name": "records",
      "outputs": [
        {
          "internalType": "address",
          "name": "provider",
          "type": "address"
        },
        {
          "internalType": "bytes32",
          "name": "dataHash",
          "type": "bytes32"
        },
        {
          "internalType": "string",
          "name": "dataType",
          "type": "string"
        },
        {
          "internalType": "string",
          "name": "uri",
          "type": "string"
        },
        {
          "internalType": "uint64",
          "name": "createdAt",
          "type": "uint64"
        },
        {
          "components": [
            {
              "internalType": "uint256",
              "name": "steps",
              "type": "uint256"
            },
            {
              "internalType": "uint256",
              "name": "heartRate",
              "type": "uint256"
            },
            {
              "internalType": "uint256",
              "name": "sleepMinutes",
              "type": "uint256"
            },
            {
              "internalType": "uint256",
              "name": "calories",
              "type": "uint256"
            },
            {
              "internalType": "uint256",
              "name": "distance",
              "type": "uint256"
            },
            {
              "internalType": "uint256",
              "name": "activeMinutes",
              "type": "uint256"
            },
            {
              "internalType": "string",
              "name": "metricType",
              "type": "string"
            }
          ],
          "internalType": "struct DataRegistry.HealthMetrics",
          "name": "metrics",
          "type": "tuple"
        },
        {
          "internalType": "bool",
          "name": "hasMetrics",
          "type": "bool"
        }
      ],
      "stateMutability": "view",
      "type": "function"
    },
    {
      "inputs": [
        {
          "internalType": "bytes32",
          "name": "dataHash",
          "type": "bytes32"
        },
        {
          "internalType": "string",
          "name": "dataType",
          "type": "string"
        },
        {
          "internalType": "string",
          "name": "uri",
          "type": "string"
        }
      ],
      "name": "registerData",
      "outputs": [
        {
          "internalType": "uint256",
          "name": "",
          "type": "uint256"
        }
      ],
      "stateMutability": "nonpayable",
      "type": "function"
    },
    {
      "inputs": [
        {
          "internalType": "bytes32",
          "name": "dataHash",
          "type": "bytes32"
        },
        {
          "internalType": "string",
          "name": "dataType",
          "type": "string"
        },
        {
          "internalType": "string",
          "name": "uri",
          "type": "string"
        },
        {
          "components": [
            {
              "internalType": "uint256",
              "name": "steps",
              "type": "uint256"
            },
            {
              "internalType": "uint256",
              "name": "heartRate",
              "type": "uint256"
            },
            {
              "internalType": "uint256",
              "name": "sleepMinutes",
              "type": "uint256"
            },
            {
              "internalType": "uint256",
              "name": "calories",
              "type": "uint256"
            },
            {
              "internalType": "uint256",
              "name": "distance",
              "type": "uint256"
            },
            {
              "internalType": "uint256",
              "name": "activeMinutes",
              "type": "uint256"
            },
            {
              "internalType": "string",
              "name": "metricType",
              "type": "string"
            }
          ],
          "internalType": "struct DataRegistry.HealthMetrics",
          "name": "metrics",
          "type": "tuple"
        }
      ],
      "name": "registerDataWithMetrics",
      "outputs": [
        {
          "internalType": "uint256",
          "name": "",
          "type": "uint256"
        }
      ],
      "stateMutability": "nonpayable",
      "type": "function"
    },
    {
      "inputs": [],
      "name": "renounceOwnership",
      "outputs": [],
      "stateMutability": "nonpayable",
      "type": "function"
    },
    {
      "inputs": [
        {
          "internalType": "uint256",
          "name": "dataAddr",
          "type": "uint256"
        },
        {
          "internalType": "address",
          "name": "grantee",
          "type": "address"
        }
      ],
      "name": "revokeAccess",
      "outputs": [],
      "stateMutability": "nonpayable",
      "type": "function"
    },
    {
      "inputs": [
        {
          "internalType": "uint256",
          "name": "dataAddr",
          "type": "uint256"
        }
      ],
      "name": "revokeData",
      "outputs": [],
      "stateMutability": "nonpayable",
      "type": "function"
    },
    {
      "inputs": [
        {
          "internalType": "address",
          "name": "_marketplace",
          "type": "address"
        }
      ],
      "name": "setMarketplace",
      "outputs": [],
      "stateMutability": "nonpayable",
      "type": "function"
    },
    {
      "inputs": [
        {
          "internalType": "address",
          "name": "newOwner",
          "type": "address"
        }
      ],
      "name": "transferOwnership",
      "outputs": [],
      "stateMutability": "nonpayable",
      "type": "function"
    },
    {
      "inputs": [
        {
          "internalType": "address",
          "name": "",
          "type": "address"
        }
      ],
      "name": "userNextDataAddr",
      "outputs": [
        {
          "internalType": "uint256",
          "name": "",
          "type": "uint256"
        }
      ],
      "stateMutability": "view",
      "type": "function"
    }
  ],
  "bytecode": "0x60806040523480156200001157600080fd5b5033600073ffffffffffffffffffffffffffffffffffffffff168173ffffffffffffffffffffffffffffffffffffffff1603620000885760006040517f1e4fbdf70000000000000000000000000000000000000000000000000000000081526004016200007f9190620001a9565b60405180910390fd5b6200009981620000a060201b60201c565b50620001c6565b60008060009054906101000a900473ffffffffffffffffffffffffffffffffffffffff169050816000806101000a81548173ffffffffffffffffffffffffffffffffffffffff021916908373ffffffffffffffffffffffffffffffffffffffff1602179055508173ffffffffffffffffffffffffffffffffffffffff168173ffffffffffffffffffffffffffffffffffffffff167f8be0079c531659141344cd1fd0a4f28419497f9722a3daafe3b4186f6b6457e060405160405180910390a35050565b600073ffffffffffffffffffffffffffffffffffffffff82169050919050565b6000620001918262000164565b9050919050565b620001a38162000184565b82525050565b6000602082019050620001c0600083018462000198565b92915050565b61365a80620001d66000396000f3fe608060405234801561001057600080fd5b50600436106101215760003560e01c8063abc8c7af116100ad578063d9a5ec1b11610071578063d9a5ec1b1461034d578063e38ade8b14610369578063e46f424514610399578063f2fde38b146103c9578063f93edfb0146103e557610121565b8063abc8c7af1461026f578063b1db4ce71461028d578063c984f73e146102bd578063ced14198146102ed578063d5b2d1ed1461031d57610121565b806365dd152c116100f457806365dd152c146101d85780636a7aaf94146101f4578063715018a61461022b57806373ad6c2d146102355780638da5cb5b1461025157610121565b80630308dba5146101265780633446106714610156578063403be57a1461018c5780634ec92b0e146101a8575b600080fd5b610140600480360381019061013b91906125d5565b610415565b60405161014d91906126ca565b60405180910390f35b610170600480360381019061016b9190612718565b610706565b6040516101839796959493929190612921565b60405180910390f35b6101a660048036038101906101a19190612718565b610971565b005b6101c260048036038101906101bd91906125d5565b610b70565b6040516101cf91906129b4565b60405180910390f35b6101f260048036038101906101ed91906129cf565b610b88565b005b61020e60048036038101906102099190612718565b610d9d565b604051610222989796959493929190612a0f565b60405180910390f35b610233611151565b005b61024f600480360381019061024a91906125d5565b611165565b005b610259611263565b6040516102669190612a94565b60405180910390f35b61027761128c565b6040516102849190612a94565b60405180910390f35b6102a760048036038101906102a29190612718565b6112b2565b6040516102b491906129b4565b60405180910390f35b6102d760048036038101906102d29190612b64565b6112ca565b6040516102e491906129b4565b60405180910390f35b610307600480360381019061030291906129cf565b611611565b6040516103149190612c27565b60405180910390f35b610337600480360381019061033291906129cf565b611640565b6040516103449190612c27565b60405180910390f35b610367600480360381019061036291906129cf565b611a0c565b005b610383600480360381019061037e9190612c42565b611c4f565b60405161039091906129b4565b60405180910390f35b6103b360048036038101906103ae9190612718565b611f30565b6040516103c09190612a94565b60405180910390f35b6103e360048036038101906103de91906125d5565b611f3e565b005b6103ff60048036038101906103fa91906125d5565b611fc4565b60405161040c91906126ca565b60405180910390f35b60606000600160008473ffffffffffffffffffffffffffffffffffffffff1673ffffffffffffffffffffffffffffffffffffffff168152602001908152602001600020549050600081036104b557600067ffffffffffffffff81111561047e5761047d612cd7565b5b6040519080825280602002602001820160405280156104ac5781602001602082028036833780820191505090505b50915050610701565b600080600190505b8281116105725760008160608773ffffffffffffffffffffffffffffffffffffffff16901b179050600073ffffffffffffffffffffffffffffffffffffffff166002600083815260200190815260200160002060000160009054906101000a900473ffffffffffffffffffffffffffffffffffffffff1673ffffffffffffffffffffffffffffffffffffffff161461055e57828061055a90612d35565b9350505b50808061056a90612d35565b9150506104bd565b50600081036105ce57600067ffffffffffffffff81111561059657610595612cd7565b5b6040519080825280602002602001820160405280156105c45781602001602082028036833780820191505090505b5092505050610701565b60008167ffffffffffffffff8111156105ea576105e9612cd7565b5b6040519080825280602002602001820160405280156106185781602001602082028036833780820191505090505b509050600080600190505b8481116106f85760008160608973ffffffffffffffffffffffffffffffffffffffff16901b179050600073ffffffffffffffffffffffffffffffffffffffff166002600083815260200190815260200160002060000160009054906101000a900473ffffffffffffffffffffffffffffffffffffffff1673ffffffffffffffffffffffffffffffffffffffff16146106e457808484815181106106c9576106c8612d7d565b5b60200260200101818152505082806106e090612d35565b9350505b5080806106f090612d35565b915050610623565b50819450505050505b919050565b60026020528060005260406000206000915090508060000160009054906101000a900473ffffffffffffffffffffffffffffffffffffffff169080600101549080600201805461075590612ddb565b80601f016020809104026020016040519081016040528092919081815260200182805461078190612ddb565b80156107ce5780601f106107a3576101008083540402835291602001916107ce565b820191906000526020600020905b8154815290600101906020018083116107b157829003601f168201915b5050505050908060030180546107e390612ddb565b80601f016020809104026020016040519081016040528092919081815260200182805461080f90612ddb565b801561085c5780601f106108315761010080835404028352916020019161085c565b820191906000526020600020905b81548152906001019060200180831161083f57829003601f168201915b5050505050908060040160009054906101000a900467ffffffffffffffff1690806005016040518060e00160405290816000820154815260200160018201548152602001600282015481526020016003820154815260200160048201548152602001600582015481526020016006820180546108d790612ddb565b80601f016020809104026020016040519081016040528092919081815260200182805461090390612ddb565b80156109505780601f1061092557610100808354040283529160200191610950565b820191906000526020600020905b81548152906001019060200180831161093357829003601f168201915b5050505050815250509080600c0160009054906101000a900460ff16905087565b600061097c82611f30565b90503373ffffffffffffffffffffffffffffffffffffffff168173ffffffffffffffffffffffffffffffffffffffff16146109ec576040517f08c379a00000000000000000000000000000000000000000000000000000000081526004016109e390612e58565b60405180910390fd5b600073ffffffffffffffffffffffffffffffffffffffff166002600084815260200190815260200160002060000160009054906101000a900473ffffffffffffffffffffffffffffffffffffffff1673ffffffffffffffffffffffffffffffffffffffff1603610a91576040517f08c379a0000000000000000000000000000000000000000000000000000000008152600401610a8890612ec4565b60405180910390fd5b60026000838152602001908152602001600020600080820160006101000a81549073ffffffffffffffffffffffffffffffffffffffff02191690556001820160009055600282016000610ae491906124c9565b600382016000610af491906124c9565b6004820160006101000a81549067ffffffffffffffff02191690556005820160008082016000905560018201600090556002820160009055600382016000905560048201600090556005820160009055600682016000610b5491906124c9565b5050600c820160006101000a81549060ff021916905550505050565b60016020528060005260406000206000915090505481565b816000610b9482611f30565b90508073ffffffffffffffffffffffffffffffffffffffff163373ffffffffffffffffffffffffffffffffffffffff161480610c1d5750600460009054906101000a900473ffffffffffffffffffffffffffffffffffffffff1673ffffffffffffffffffffffffffffffffffffffff163373ffffffffffffffffffffffffffffffffffffffff16145b610c5c576040517f08c379a0000000000000000000000000000000000000000000000000000000008152600401610c5390612e58565b60405180910390fd5b600073ffffffffffffffffffffffffffffffffffffffff168373ffffffffffffffffffffffffffffffffffffffff1603610ccb576040517f08c379a0000000000000000000000000000000000000000000000000000000008152600401610cc290612f30565b60405180910390fd5b60016003600086815260200190815260200160002060008573ffffffffffffffffffffffffffffffffffffffff1673ffffffffffffffffffffffffffffffffffffffff16815260200190815260200160002060006101000a81548160ff0219169083151502179055508273ffffffffffffffffffffffffffffffffffffffff16610d5485611f30565b73ffffffffffffffffffffffffffffffffffffffff16857f97a8264d9d0b9e21370349f9b49be012a5d1e27829879df8ba166dba48f898c660405160405180910390a450505050565b6000806000806000806060600080600260008b81526020019081526020016000206040518060e00160405290816000820160009054906101000a900473ffffffffffffffffffffffffffffffffffffffff1673ffffffffffffffffffffffffffffffffffffffff1673ffffffffffffffffffffffffffffffffffffffff16815260200160018201548152602001600282018054610e3990612ddb565b80601f0160208091040260200160405190810160405280929190818152602001828054610e6590612ddb565b8015610eb25780601f10610e8757610100808354040283529160200191610eb2565b820191906000526020600020905b815481529060010190602001808311610e9557829003601f168201915b50505050508152602001600382018054610ecb90612ddb565b80601f0160208091040260200160405190810160405280929190818152602001828054610ef790612ddb565b8015610f445780601f10610f1957610100808354040283529160200191610f44565b820191906000526020600020905b815481529060010190602001808311610f2757829003601f168201915b505050505081526020016004820160009054906101000a900467ffffffffffffffff1667ffffffffffffffff1667ffffffffffffffff168152602001600582016040518060e0016040529081600082015481526020016001820154815260200160028201548152602001600382015481526020016004820154815260200160058201548152602001600682018054610fdb90612ddb565b80601f016020809104026020016040519081016040528092919081815260200182805461100790612ddb565b80156110545780601f1061102957610100808354040283529160200191611054565b820191906000526020600020905b81548152906001019060200180831161103757829003601f168201915b5050505050815250508152602001600c820160009054906101000a900460ff1615151515815250509050600073ffffffffffffffffffffffffffffffffffffffff16816000015173ffffffffffffffffffffffffffffffffffffffff16036110f1576040517f08c379a00000000000000000000000000000000000000000000000000000000081526004016110e890612ec4565b60405180910390fd5b8060a00151600001518160a00151602001518260a00151604001518360a00151606001518460a00151608001518560a0015160a001518660a0015160c001518760c001519850985098509850985098509850985050919395975091939597565b6111596122bd565b6111636000612344565b565b61116d6122bd565b600073ffffffffffffffffffffffffffffffffffffffff168173ffffffffffffffffffffffffffffffffffffffff16036111dc576040517f08c379a00000000000000000000000000000000000000000000000000000000081526004016111d390612f9c565b60405180910390fd5b80600460006101000a81548173ffffffffffffffffffffffffffffffffffffffff021916908373ffffffffffffffffffffffffffffffffffffffff1602179055508073ffffffffffffffffffffffffffffffffffffffff167f78fd71746fd8724dd16b5a93e765a076614159ebdc73d996a6a8884f358898e560405160405180910390a250565b60008060009054906101000a900473ffffffffffffffffffffffffffffffffffffffff16905090565b600460009054906101000a900473ffffffffffffffffffffffffffffffffffffffff1681565b60006bffffffffffffffffffffffff82169050919050565b60008060001b8703611311576040517f08c379a000000000000000000000000000000000000000000000000000000000815260040161130890613008565b60405180910390fd5b600082600001351180611328575060008260200135115b80611337575060008260600135115b611376576040517f08c379a000000000000000000000000000000000000000000000000000000000815260040161136d90613074565b60405180910390fd5b600061138133612408565b90506040518060e001604052803373ffffffffffffffffffffffffffffffffffffffff16815260200189815260200188888080601f016020809104026020016040519081016040528093929190818152602001838380828437600081840152601f19601f82011690508083019250505050505050815260200186868080601f016020809104026020016040519081016040528093929190818152602001838380828437600081840152601f19601f8201169050808301925050505050505081526020014267ffffffffffffffff1681526020018461145e9061326f565b8152602001600115158152506002600083815260200190815260200160002060008201518160000160006101000a81548173ffffffffffffffffffffffffffffffffffffffff021916908373ffffffffffffffffffffffffffffffffffffffff1602179055506020820151816001015560408201518160020190816114e3919061342e565b5060608201518160030190816114f9919061342e565b5060808201518160040160006101000a81548167ffffffffffffffff021916908367ffffffffffffffff16021790555060a082015181600501600082015181600001556020820151816001015560408201518160020155606082015181600301556080820151816004015560a0820151816005015560c0820151816006019081611583919061342e565b50505060c082015181600c0160006101000a81548160ff0219169083151502179055509050503373ffffffffffffffffffffffffffffffffffffffff16817fca224cbeb173a71e085d7e5d1f7d0f2269e92fa0482455cf907b66a40f53d1ea8a8a8a8a8a60016040516115fb9695949392919061352d565b60405180910390a3809150509695505050505050565b60036020528160005260406000206020528060005260406000206000915091509054906101000a900460ff1681565b600080600260008581526020019081526020016000206040518060e00160405290816000820160009054906101000a900473ffffffffffffffffffffffffffffffffffffffff1673ffffffffffffffffffffffffffffffffffffffff1673ffffffffffffffffffffffffffffffffffffffff168152602001600182015481526020016002820180546116d190612ddb565b80601f01602080910402602001604051908101604052809291908181526020018280546116fd90612ddb565b801561174a5780601f1061171f5761010080835404028352916020019161174a565b820191906000526020600020905b81548152906001019060200180831161172d57829003601f168201915b5050505050815260200160038201805461176390612ddb565b80601f016020809104026020016040519081016040528092919081815260200182805461178f90612ddb565b80156117dc5780601f106117b1576101008083540402835291602001916117dc565b820191906000526020600020905b8154815290600101906020018083116117bf57829003601f168201915b505050505081526020016004820160009054906101000a900467ffffffffffffffff1667ffffffffffffffff1667ffffffffffffffff168152602001600582016040518060e001604052908160008201548152602001600182015481526020016002820154815260200160038201548152602001600482015481526020016005820154815260200160068201805461187390612ddb565b80601f016020809104026020016040519081016040528092919081815260200182805461189f90612ddb565b80156118ec5780601f106118c1576101008083540402835291602001916118ec565b820191906000526020600020905b8154815290600101906020018083116118cf57829003601f168201915b5050505050815250508152602001600c820160009054906101000a900460ff1615151515815250509050600073ffffffffffffffffffffffffffffffffffffffff16816000015173ffffffffffffffffffffffffffffffffffffffff1603611958576000915050611a06565b600061196385611f30565b90508073ffffffffffffffffffffffffffffffffffffffff168473ffffffffffffffffffffffffffffffffffffffff16036119a357600192505050611a06565b6003600086815260200190815260200160002060008573ffffffffffffffffffffffffffffffffffffffff1673ffffffffffffffffffffffffffffffffffffffff16815260200190815260200160002060009054906101000a900460ff16925050505b92915050565b816000611a1882611f30565b90508073ffffffffffffffffffffffffffffffffffffffff163373ffffffffffffffffffffffffffffffffffffffff161480611aa15750600460009054906101000a900473ffffffffffffffffffffffffffffffffffffffff1673ffffffffffffffffffffffffffffffffffffffff163373ffffffffffffffffffffffffffffffffffffffff16145b611ae0576040517f08c379a0000000000000000000000000000000000000000000000000000000008152600401611ad790612e58565b60405180910390fd5b6003600085815260200190815260200160002060008473ffffffffffffffffffffffffffffffffffffffff1673ffffffffffffffffffffffffffffffffffffffff16815260200190815260200160002060009054906101000a900460ff16611b7d576040517f08c379a0000000000000000000000000000000000000000000000000000000008152600401611b74906135d0565b60405180910390fd5b60006003600086815260200190815260200160002060008573ffffffffffffffffffffffffffffffffffffffff1673ffffffffffffffffffffffffffffffffffffffff16815260200190815260200160002060006101000a81548160ff0219169083151502179055508273ffffffffffffffffffffffffffffffffffffffff16611c0685611f30565b73ffffffffffffffffffffffffffffffffffffffff16857f260547d4038414ef72f081dcde91825693dff9bc433178f3e92ad36e0cd2275060405160405180910390a450505050565b60008060001b8603611c96576040517f08c379a0000000000000000000000000000000000000000000000000000000008152600401611c8d90613008565b60405180910390fd5b6000611ca133612408565b9050611cab612509565b6040518060e001604052803373ffffffffffffffffffffffffffffffffffffffff16815260200189815260200188888080601f016020809104026020016040519081016040528093929190818152602001838380828437600081840152601f19601f82011690508083019250505050505050815260200186868080601f016020809104026020016040519081016040528093929190818152602001838380828437600081840152601f19601f8201169050808301925050505050505081526020014267ffffffffffffffff168152602001828152602001600015158152506002600084815260200190815260200160002060008201518160000160006101000a81548173ffffffffffffffffffffffffffffffffffffffff021916908373ffffffffffffffffffffffffffffffffffffffff160217905550602082015181600101556040820151816002019081611e02919061342e565b506060820151816003019081611e18919061342e565b5060808201518160040160006101000a81548167ffffffffffffffff021916908367ffffffffffffffff16021790555060a082015181600501600082015181600001556020820151816001015560408201518160020155606082015181600301556080820151816004015560a0820151816005015560c0820151816006019081611ea2919061342e565b50505060c082015181600c0160006101000a81548160ff0219169083151502179055509050503373ffffffffffffffffffffffffffffffffffffffff16827fca224cbeb173a71e085d7e5d1f7d0f2269e92fa0482455cf907b66a40f53d1ea8a8a8a8a8a6000604051611f1a9695949392919061352d565b60405180910390a3819250505095945050505050565b6000606082901c9050919050565b611f466122bd565b600073ffffffffffffffffffffffffffffffffffffffff168173ffffffffffffffffffffffffffffffffffffffff1603611fb85760006040517f1e4fbdf7000000000000000000000000000000000000000000000000000000008152600401611faf9190612a94565b60405180910390fd5b611fc181612344565b50565b60606000600160008473ffffffffffffffffffffffffffffffffffffffff1673ffffffffffffffffffffffffffffffffffffffff1681526020019081526020016000205490506000810361206457600067ffffffffffffffff81111561202d5761202c612cd7565b5b60405190808252806020026020018201604052801561205b5781602001602082028036833780820191505090505b509150506122b8565b600080600190505b8281116121215760008160608773ffffffffffffffffffffffffffffffffffffffff16901b179050600073ffffffffffffffffffffffffffffffffffffffff166002600083815260200190815260200160002060000160009054906101000a900473ffffffffffffffffffffffffffffffffffffffff1673ffffffffffffffffffffffffffffffffffffffff161461210d57828061210990612d35565b9350505b50808061211990612d35565b91505061206c565b506000810361217d57600067ffffffffffffffff81111561214557612144612cd7565b5b6040519080825280602002602001820160405280156121735781602001602082028036833780820191505090505b50925050506122b8565b60008167ffffffffffffffff81111561219957612198612cd7565b5b6040519080825280602002602001820160405280156121c75781602001602082028036833780820191505090505b509050600080600190505b8481116122af5760008160608973ffffffffffffffffffffffffffffffffffffffff16901b179050600073ffffffffffffffffffffffffffffffffffffffff166002600083815260200190815260200160002060000160009054906101000a900473ffffffffffffffffffffffffffffffffffffffff1673ffffffffffffffffffffffffffffffffffffffff161461229b5761226d816112b2565b8484815181106122805761227f612d7d565b5b602002602001018181525050828061229790612d35565b9350505b5080806122a790612d35565b9150506121d2565b50819450505050505b919050565b6122c56124c1565b73ffffffffffffffffffffffffffffffffffffffff166122e3611263565b73ffffffffffffffffffffffffffffffffffffffff1614612342576123066124c1565b6040517f118cdaa70000000000000000000000000000000000000000000000000000000081526004016123399190612a94565b60405180910390fd5b565b60008060009054906101000a900473ffffffffffffffffffffffffffffffffffffffff169050816000806101000a81548173ffffffffffffffffffffffffffffffffffffffff021916908373ffffffffffffffffffffffffffffffffffffffff1602179055508173ffffffffffffffffffffffffffffffffffffffff168173ffffffffffffffffffffffffffffffffffffffff167f8be0079c531659141344cd1fd0a4f28419497f9722a3daafe3b4186f6b6457e060405160405180910390a35050565b60008060018060008573ffffffffffffffffffffffffffffffffffffffff1673ffffffffffffffffffffffffffffffffffffffff1681526020019081526020016000205461245691906135f0565b905080600160008573ffffffffffffffffffffffffffffffffffffffff1673ffffffffffffffffffffffffffffffffffffffff168152602001908152602001600020819055508060608473ffffffffffffffffffffffffffffffffffffffff16901b17915050919050565b600033905090565b5080546124d590612ddb565b6000825580601f106124e75750612506565b601f0160209004906000526020600020908101906125059190612546565b5b50565b6040518060e00160405280600081526020016000815260200160008152602001600081526020016000815260200160008152602001606081525090565b5b8082111561255f576000816000905550600101612547565b5090565b6000604051905090565b600080fd5b600080fd5b600073ffffffffffffffffffffffffffffffffffffffff82169050919050565b60006125a282612577565b9050919050565b6125b281612597565b81146125bd57600080fd5b50565b6000813590506125cf816125a9565b92915050565b6000602082840312156125eb576125ea61256d565b5b60006125f9848285016125c0565b91505092915050565b600081519050919050565b600082825260208201905092915050565b6000819050602082019050919050565b6000819050919050565b6126418161262e565b82525050565b60006126538383612638565b60208301905092915050565b6000602082019050919050565b600061267782612602565b612681818561260d565b935061268c8361261e565b8060005b838110156126bd5781516126a48882612647565b97506126af8361265f565b925050600181019050612690565b5085935050505092915050565b600060208201905081810360008301526126e4818461266c565b905092915050565b6126f58161262e565b811461270057600080fd5b50565b600081359050612712816126ec565b92915050565b60006020828403121561272e5761272d61256d565b5b600061273c84828501612703565b91505092915050565b61274e81612597565b82525050565b6000819050919050565b61276781612754565b82525050565b600081519050919050565b600082825260208201905092915050565b60005b838110156127a757808201518184015260208101905061278c565b60008484015250505050565b6000601f19601f8301169050919050565b60006127cf8261276d565b6127d98185612778565b93506127e9818560208601612789565b6127f2816127b3565b840191505092915050565b600067ffffffffffffffff82169050919050565b61281a816127fd565b82525050565b600082825260208201905092915050565b600061283c8261276d565b6128468185612820565b9350612856818560208601612789565b61285f816127b3565b840191505092915050565b600060e0830160008301516128826000860182612638565b5060208301516128956020860182612638565b5060408301516128a86040860182612638565b5060608301516128bb6060860182612638565b5060808301516128ce6080860182612638565b5060a08301516128e160a0860182612638565b5060c083015184820360c08601526128f98282612831565b9150508091505092915050565b60008115159050919050565b61291b81612906565b82525050565b600060e082019050612936600083018a612745565b612943602083018961275e565b818103604083015261295581886127c4565b9050818103606083015261296981876127c4565b90506129786080830186612811565b81810360a083015261298a818561286a565b905061299960c0830184612912565b98975050505050505050565b6129ae8161262e565b82525050565b60006020820190506129c960008301846129a5565b92915050565b600080604083850312156129e6576129e561256d565b5b60006129f485828601612703565b9250506020612a05858286016125c0565b9150509250929050565b600061010082019050612a25600083018b6129a5565b612a32602083018a6129a5565b612a3f60408301896129a5565b612a4c60608301886129a5565b612a5960808301876129a5565b612a6660a08301866129a5565b81810360c0830152612a7881856127c4565b9050612a8760e0830184612912565b9998505050505050505050565b6000602082019050612aa96000830184612745565b92915050565b612ab881612754565b8114612ac357600080fd5b50565b600081359050612ad581612aaf565b92915050565b600080fd5b600080fd5b600080fd5b60008083601f840112612b0057612aff612adb565b5b8235905067ffffffffffffffff811115612b1d57612b1c612ae0565b5b602083019150836001820283011115612b3957612b38612ae5565b5b9250929050565b600080fd5b600060e08284031215612b5b57612b5a612b40565b5b81905092915050565b60008060008060008060808789031215612b8157612b8061256d565b5b6000612b8f89828a01612ac6565b965050602087013567ffffffffffffffff811115612bb057612baf612572565b5b612bbc89828a01612aea565b9550955050604087013567ffffffffffffffff811115612bdf57612bde612572565b5b612beb89828a01612aea565b9350935050606087013567ffffffffffffffff811115612c0e57612c0d612572565b5b612c1a89828a01612b45565b9150509295509295509295565b6000602082019050612c3c6000830184612912565b92915050565b600080600080600060608688031215612c5e57612c5d61256d565b5b6000612c6c88828901612ac6565b955050602086013567ffffffffffffffff811115612c8d57612c8c612572565b5b612c9988828901612aea565b9450945050604086013567ffffffffffffffff811115612cbc57612cbb612572565b5b612cc888828901612aea565b92509250509295509295909350565b7f4e487b7100000000000000000000000000000000000000000000000000000000600052604160045260246000fd5b7f4e487b7100000000000000000000000000000000000000000000000000000000600052601160045260246000fd5b6000612d408261262e565b91507fffffffffffffffffffffffffffffffffffffffffffffffffffffffffffffffff8203612d7257612d71612d06565b5b600182019050919050565b7f4e487b7100000000000000000000000000000000000000000000000000000000600052603260045260246000fd5b7f4e487b7100000000000000000000000000000000000000000000000000000000600052602260045260246000fd5b60006002820490506001821680612df357607f821691505b602082108103612e0657612e05612dac565b5b50919050565b7f4e6f742064617461206f776e6572000000000000000000000000000000000000600082015250565b6000612e42600e83612778565b9150612e4d82612e0c565b602082019050919050565b60006020820190508181036000830152612e7181612e35565b9050919050565b7f44617461206e6f7420666f756e64000000000000000000000000000000000000600082015250565b6000612eae600e83612778565b9150612eb982612e78565b602082019050919050565b60006020820190508181036000830152612edd81612ea1565b9050919050565b7f496e76616c6964206772616e7465650000000000000000000000000000000000600082015250565b6000612f1a600f83612778565b9150612f2582612ee4565b602082019050919050565b60006020820190508181036000830152612f4981612f0d565b9050919050565b7f496e76616c6964206d61726b6574706c61636500000000000000000000000000600082015250565b6000612f86601383612778565b9150612f9182612f50565b602082019050919050565b60006020820190508181036000830152612fb581612f79565b9050919050565b7f496e76616c696420646174612068617368000000000000000000000000000000600082015250565b6000612ff2601183612778565b9150612ffd82612fbc565b602082019050919050565b6000602082019050818103600083015261302181612fe5565b9050919050565b7f4d6574726963732063616e6e6f7420626520616c6c207a65726f000000000000600082015250565b600061305e601a83612778565b915061306982613028565b602082019050919050565b6000602082019050818103600083015261308d81613051565b9050919050565b600080fd5b6130a2826127b3565b810181811067ffffffffffffffff821117156130c1576130c0612cd7565b5b80604052505050565b60006130d4612563565b90506130e08282613099565b919050565b600080fd5b600080fd5b600067ffffffffffffffff82111561310a57613109612cd7565b5b613113826127b3565b9050602081019050919050565b82818337600083830152505050565b600061314261313d846130ef565b6130ca565b90508281526020810184848401111561315e5761315d6130ea565b5b613169848285613120565b509392505050565b600082601f83011261318657613185612adb565b5b813561319684826020860161312f565b91505092915050565b600060e082840312156131b5576131b4613094565b5b6131bf60e06130ca565b905060006131cf84828501612703565b60008301525060206131e384828501612703565b60208301525060406131f784828501612703565b604083015250606061320b84828501612703565b606083015250608061321f84828501612703565b60808301525060a061323384828501612703565b60a08301525060c082013567ffffffffffffffff811115613257576132566130e5565b5b61326384828501613171565b60c08301525092915050565b600061327b368361319f565b9050919050565b60008190508160005260206000209050919050565b60006020601f8301049050919050565b600082821b905092915050565b6000600883026132e47fffffffffffffffffffffffffffffffffffffffffffffffffffffffffffffffff826132a7565b6132ee86836132a7565b95508019841693508086168417925050509392505050565b6000819050919050565b600061332b6133266133218461262e565b613306565b61262e565b9050919050565b6000819050919050565b61334583613310565b61335961335182613332565b8484546132b4565b825550505050565b600090565b61336e613361565b61337981848461333c565b505050565b5b8181101561339d57613392600082613366565b60018101905061337f565b5050565b601f8211156133e2576133b381613282565b6133bc84613297565b810160208510156133cb578190505b6133df6133d785613297565b83018261337e565b50505b505050565b600082821c905092915050565b6000613405600019846008026133e7565b1980831691505092915050565b600061341e83836133f4565b9150826002028217905092915050565b6134378261276d565b67ffffffffffffffff8111156134505761344f612cd7565b5b61345a8254612ddb565b6134658282856133a1565b600060209050601f8311600181146134985760008415613486578287015190505b6134908582613412565b8655506134f8565b601f1984166134a686613282565b60005b828110156134ce578489015182556001820191506020850194506020810190506134a9565b868310156134eb57848901516134e7601f8916826133f4565b8355505b6001600288020188555050505b505050505050565b600061350c8385612778565b9350613519838584613120565b613522836127b3565b840190509392505050565b6000608082019050613542600083018961275e565b8181036020830152613555818789613500565b9050818103604083015261356a818587613500565b90506135796060830184612912565b979650505050505050565b7f4e6f2061636365737320746f207265766f6b6500000000000000000000000000600082015250565b60006135ba601383612778565b91506135c582613584565b602082019050919050565b600060208201905081810360008301526135e9816135ad565b9050919050565b60006135fb8261262e565b91506136068361262e565b925082820190508082111561361e5761361d612d06565b5b9291505056fea2646970667358221220ef239e30bea32e849c71fc218ffe279c0bbda2cc38d4cb323b0edcca8070e39164736f6c63430008140033",
  "linkReferences": {},
  "deployedLinkReferences": {}
}