{
  "_format": "hh-sol-artifact-1",
  "contractName": "DataRegistry",
  "sourceName": "contracts/DataRegistry.sol",
  "abi": [
    {
      "inputs": [],
      "stateMutability": "nonpayable",
      "type": "constructor"
    },
    {
      "inputs": [
        {
          "internalType": "address",
          "name": "owner",
          "type": "address"
        }
      ],
      "name": "OwnableInvalidOwner",
      "type": "error"
    },
    {
      "inputs": [
        {
          "internalType": "address",
          "name": "account",
          "type": "address"
        }
      ],
      "name": "OwnableUnauthorizedAccount",
      "type": "error"
    },
    {
      "anonymous": false,
      "inputs": [
        {
          "indexed": true,
          "internalType": "uint256",
          "name": "dataId",
          "type": "uint256"
        },
        {
          "indexed": true,
          "internalType": "address",
          "name": "provider",
          "type": "address"
        },
        {
          "indexed": true,
          "internalType": "address",
          "name": "grantee",
          "type": "address"
        }
      ],
      "name": "AccessGranted",
      "type": "event"
    },
    {
      "anonymous": false,
      "inputs": [
        {
          "indexed": true,
          "internalType": "uint256",
          "name": "dataId",
          "type": "uint256"
        },
        {
          "indexed": true,
          "internalType": "address",
          "name": "provider",
          "type": "address"
        },
        {
          "indexed": true,
          "internalType": "address",
          "name": "grantee",
          "type": "address"
        }
      ],
      "name": "AccessRevoked",
      "type": "event"
    },
    {
      "anonymous": false,
      "inputs": [
        {
          "indexed": true,
          "internalType": "uint256",
          "name": "dataId",
          "type": "uint256"
        },
        {
          "indexed": true,
          "internalType": "address",
          "name": "provider",
          "type": "address"
        },
        {
          "indexed": false,
          "internalType": "bytes32",
          "name": "dataHash",
          "type": "bytes32"
        },
        {
          "indexed": false,
          "internalType": "string",
          "name": "dataType",
          "type": "string"
        },
        {
          "indexed": false,
          "internalType": "string",
          "name": "uri",
          "type": "string"
        },
        {
          "indexed": false,
          "internalType": "bool",
          "name": "hasMetrics",
          "type": "bool"
        }
      ],
      "name": "DataRegistered",
      "type": "event"
    },
    {
      "anonymous": false,
      "inputs": [
        {
          "indexed": true,
          "internalType": "address",
          "name": "marketplace",
          "type": "address"
        }
      ],
      "name": "MarketplaceSet",
      "type": "event"
    },
    {
      "anonymous": false,
      "inputs": [
        {
          "indexed": true,
          "internalType": "address",
          "name": "previousOwner",
          "type": "address"
        },
        {
          "indexed": true,
          "internalType": "address",
          "name": "newOwner",
          "type": "address"
        }
      ],
      "name": "OwnershipTransferred",
      "type": "event"
    },
    {
      "inputs": [
        {
          "internalType": "uint256",
          "name": "dataId",
          "type": "uint256"
        },
        {
          "internalType": "address",
          "name": "user",
          "type": "address"
        }
      ],
      "name": "canAccess",
      "outputs": [
        {
          "internalType": "bool",
          "name": "",
          "type": "bool"
        }
      ],
      "stateMutability": "view",
      "type": "function"
    },
    {
      "inputs": [
        {
          "internalType": "uint256",
          "name": "dataId",
          "type": "uint256"
        }
      ],
      "name": "getHealthMetrics",
      "outputs": [
        {
          "internalType": "uint256",
          "name": "steps",
          "type": "uint256"
        },
        {
          "internalType": "uint256",
          "name": "heartRate",
          "type": "uint256"
        },
        {
          "internalType": "uint256",
          "name": "sleepMinutes",
          "type": "uint256"
        },
        {
          "internalType": "uint256",
          "name": "calories",
          "type": "uint256"
        },
        {
          "internalType": "uint256",
          "name": "distance",
          "type": "uint256"
        },
        {
          "internalType": "uint256",
          "name": "activeMinutes",
          "type": "uint256"
        },
        {
          "internalType": "string",
          "name": "metricType",
          "type": "string"
        },
        {
          "internalType": "bool",
          "name": "hasMetrics",
          "type": "bool"
        }
      ],
      "stateMutability": "view",
      "type": "function"
    },
    {
      "inputs": [
        {
          "internalType": "address",
          "name": "user",
          "type": "address"
        }
      ],
      "name": "getUserDataIds",
      "outputs": [
        {
          "internalType": "uint256[]",
          "name": "",
          "type": "uint256[]"
        }
      ],
      "stateMutability": "view",
      "type": "function"
    },
    {
      "inputs": [
        {
          "internalType": "uint256",
          "name": "dataId",
          "type": "uint256"
        },
        {
          "internalType": "address",
          "name": "grantee",
          "type": "address"
        }
      ],
      "name": "grantAccess",
      "outputs": [],
      "stateMutability": "nonpayable",
      "type": "function"
    },
    {
      "inputs": [
        {
          "internalType": "uint256",
          "name": "",
          "type": "uint256"
        },
        {
          "internalType": "address",
          "name": "",
          "type": "address"
        }
      ],
      "name": "hasAccess",
      "outputs": [
        {
          "internalType": "bool",
          "name": "",
          "type": "bool"
        }
      ],
      "stateMutability": "view",
      "type": "function"
    },
    {
      "inputs": [],
      "name": "marketplace",
      "outputs": [
        {
          "internalType": "address",
          "name": "",
          "type": "address"
        }
      ],
      "stateMutability": "view",
      "type": "function"
    },
    {
      "inputs": [],
      "name": "nextDataId",
      "outputs": [
        {
          "internalType": "uint256",
          "name": "",
          "type": "uint256"
        }
      ],
      "stateMutability": "view",
      "type": "function"
    },
    {
      "inputs": [],
      "name": "owner",
      "outputs": [
        {
          "internalType": "address",
          "name": "",
          "type": "address"
        }
      ],
      "stateMutability": "view",
      "type": "function"
    },
    {
      "inputs": [
        {
          "internalType": "uint256",
          "name": "",
          "type": "uint256"
        }
      ],
      "name": "records",
      "outputs": [
        {
          "internalType": "address",
          "name": "provider",
          "type": "address"
        },
        {
          "internalType": "bytes32",
          "name": "dataHash",
          "type": "bytes32"
        },
        {
          "internalType": "string",
          "name": "dataType",
          "type": "string"
        },
        {
          "internalType": "string",
          "name": "uri",
          "type": "string"
        },
        {
          "internalType": "uint64",
          "name": "createdAt",
          "type": "uint64"
        },
        {
          "components": [
            {
              "internalType": "uint256",
              "name": "steps",
              "type": "uint256"
            },
            {
              "internalType": "uint256",
              "name": "heartRate",
              "type": "uint256"
            },
            {
              "internalType": "uint256",
              "name": "sleepMinutes",
              "type": "uint256"
            },
            {
              "internalType": "uint256",
              "name": "calories",
              "type": "uint256"
            },
            {
              "internalType": "uint256",
              "name": "distance",
              "type": "uint256"
            },
            {
              "internalType": "uint256",
              "name": "activeMinutes",
              "type": "uint256"
            },
            {
              "internalType": "string",
              "name": "metricType",
              "type": "string"
            }
          ],
          "internalType": "struct DataRegistry.HealthMetrics",
          "name": "metrics",
          "type": "tuple"
        },
        {
          "internalType": "bool",
          "name": "hasMetrics",
          "type": "bool"
        }
      ],
      "stateMutability": "view",
      "type": "function"
    },
    {
      "inputs": [
        {
          "internalType": "bytes32",
          "name": "dataHash",
          "type": "bytes32"
        },
        {
          "internalType": "string",
          "name": "dataType",
          "type": "string"
        },
        {
          "internalType": "string",
          "name": "uri",
          "type": "string"
        }
      ],
      "name": "registerData",
      "outputs": [
        {
          "internalType": "uint256",
          "name": "",
          "type": "uint256"
        }
      ],
      "stateMutability": "nonpayable",
      "type": "function"
    },
    {
      "inputs": [
        {
          "internalType": "bytes32",
          "name": "dataHash",
          "type": "bytes32"
        },
        {
          "internalType": "string",
          "name": "dataType",
          "type": "string"
        },
        {
          "internalType": "string",
          "name": "uri",
          "type": "string"
        },
        {
          "components": [
            {
              "internalType": "uint256",
              "name": "steps",
              "type": "uint256"
            },
            {
              "internalType": "uint256",
              "name": "heartRate",
              "type": "uint256"
            },
            {
              "internalType": "uint256",
              "name": "sleepMinutes",
              "type": "uint256"
            },
            {
              "internalType": "uint256",
              "name": "calories",
              "type": "uint256"
            },
            {
              "internalType": "uint256",
              "name": "distance",
              "type": "uint256"
            },
            {
              "internalType": "uint256",
              "name": "activeMinutes",
              "type": "uint256"
            },
            {
              "internalType": "string",
              "name": "metricType",
              "type": "string"
            }
          ],
          "internalType": "struct DataRegistry.HealthMetrics",
          "name": "metrics",
          "type": "tuple"
        }
      ],
      "name": "registerDataWithMetrics",
      "outputs": [
        {
          "internalType": "uint256",
          "name": "",
          "type": "uint256"
        }
      ],
      "stateMutability": "nonpayable",
      "type": "function"
    },
    {
      "inputs": [],
      "name": "renounceOwnership",
      "outputs": [],
      "stateMutability": "nonpayable",
      "type": "function"
    },
    {
      "inputs": [
        {
          "internalType": "uint256",
          "name": "dataId",
          "type": "uint256"
        },
        {
          "internalType": "address",
          "name": "grantee",
          "type": "address"
        }
      ],
      "name": "revokeAccess",
      "outputs": [],
      "stateMutability": "nonpayable",
      "type": "function"
    },
    {
      "inputs": [
        {
          "internalType": "uint256",
          "name": "dataId",
          "type": "uint256"
        }
      ],
      "name": "revokeData",
      "outputs": [],
      "stateMutability": "nonpayable",
      "type": "function"
    },
    {
      "inputs": [
        {
          "internalType": "address",
          "name": "_marketplace",
          "type": "address"
        }
      ],
      "name": "setMarketplace",
      "outputs": [],
      "stateMutability": "nonpayable",
      "type": "function"
    },
    {
      "inputs": [
        {
          "internalType": "address",
          "name": "newOwner",
          "type": "address"
        }
      ],
      "name": "transferOwnership",
      "outputs": [],
      "stateMutability": "nonpayable",
      "type": "function"
    }
  ],
  "bytecode": "0x60806040523480156200001157600080fd5b5033600073ffffffffffffffffffffffffffffffffffffffff168173ffffffffffffffffffffffffffffffffffffffff1603620000885760006040517f1e4fbdf70000000000000000000000000000000000000000000000000000000081526004016200007f9190620001a9565b60405180910390fd5b6200009981620000a060201b60201c565b50620001c6565b60008060009054906101000a900473ffffffffffffffffffffffffffffffffffffffff169050816000806101000a81548173ffffffffffffffffffffffffffffffffffffffff021916908373ffffffffffffffffffffffffffffffffffffffff1602179055508173ffffffffffffffffffffffffffffffffffffffff168173ffffffffffffffffffffffffffffffffffffffff167f8be0079c531659141344cd1fd0a4f28419497f9722a3daafe3b4186f6b6457e060405160405180910390a35050565b600073ffffffffffffffffffffffffffffffffffffffff82169050919050565b6000620001918262000164565b9050919050565b620001a38162000184565b82525050565b6000602082019050620001c0600083018462000198565b92915050565b61312980620001d66000396000f3fe608060405234801561001057600080fd5b50600436106101005760003560e01c80638da5cb5b11610097578063d5b2d1ed11610066578063d5b2d1ed146102ba578063d9a5ec1b146102ea578063e38ade8b14610306578063f2fde38b1461033657610100565b80638da5cb5b1461021e578063abc8c7af1461023c578063c984f73e1461025a578063ced141981461028a57610100565b80636a7aaf94116100d35780636a7aaf94146101a3578063715018a6146101da57806373ad6c2d146101e45780638b4ce2dd1461020057610100565b80633446106714610105578063403be57a1461013b57806365dd152c1461015757806366792d0014610173575b600080fd5b61011f600480360381019061011a91906120b0565b610352565b60405161013297969594939291906122fa565b60405180910390f35b610155600480360381019061015091906120b0565b6105bd565b005b610171600480360381019061016c91906123aa565b6107e4565b005b61018d600480360381019061018891906123ea565b610a55565b60405161019a91906124c6565b60405180910390f35b6101bd60048036038101906101b891906120b0565b610c09565b6040516101d19897969594939291906124f7565b60405180910390f35b6101e2610fbd565b005b6101fe60048036038101906101f991906123ea565b610fd1565b005b6102086110cf565b604051610215919061257c565b60405180910390f35b6102266110d5565b6040516102339190612597565b60405180910390f35b6102446110fe565b6040516102519190612597565b60405180910390f35b610274600480360381019061026f9190612667565b611124565b604051610281919061257c565b60405180910390f35b6102a4600480360381019061029f91906123aa565b611477565b6040516102b1919061272a565b60405180910390f35b6102d460048036038101906102cf91906123aa565b6114a6565b6040516102e1919061272a565b60405180910390f35b61030460048036038101906102ff91906123aa565b611867565b005b610320600480360381019061031b9190612745565b611b06565b60405161032d919061257c565b60405180910390f35b610350600480360381019061034b91906123ea565b611df3565b005b60026020528060005260406000206000915090508060000160009054906101000a900473ffffffffffffffffffffffffffffffffffffffff16908060010154908060020180546103a190612809565b80601f01602080910402602001604051908101604052809291908181526020018280546103cd90612809565b801561041a5780601f106103ef5761010080835404028352916020019161041a565b820191906000526020600020905b8154815290600101906020018083116103fd57829003601f168201915b50505050509080600301805461042f90612809565b80601f016020809104026020016040519081016040528092919081815260200182805461045b90612809565b80156104a85780601f1061047d576101008083540402835291602001916104a8565b820191906000526020600020905b81548152906001019060200180831161048b57829003601f168201915b5050505050908060040160009054906101000a900467ffffffffffffffff1690806005016040518060e001604052908160008201548152602001600182015481526020016002820154815260200160038201548152602001600482015481526020016005820154815260200160068201805461052390612809565b80601f016020809104026020016040519081016040528092919081815260200182805461054f90612809565b801561059c5780601f106105715761010080835404028352916020019161059c565b820191906000526020600020905b81548152906001019060200180831161057f57829003601f168201915b5050505050815250509080600c0160009054906101000a900460ff16905087565b3373ffffffffffffffffffffffffffffffffffffffff166002600083815260200190815260200160002060000160009054906101000a900473ffffffffffffffffffffffffffffffffffffffff1673ffffffffffffffffffffffffffffffffffffffff1614610661576040517f08c379a000000000000000000000000000000000000000000000000000000000815260040161065890612886565b60405180910390fd5b600073ffffffffffffffffffffffffffffffffffffffff166002600083815260200190815260200160002060000160009054906101000a900473ffffffffffffffffffffffffffffffffffffffff1673ffffffffffffffffffffffffffffffffffffffff1603610706576040517f08c379a00000000000000000000000000000000000000000000000000000000081526004016106fd906128f2565b60405180910390fd5b60026000828152602001908152602001600020600080820160006101000a81549073ffffffffffffffffffffffffffffffffffffffff021916905560018201600090556002820160006107599190611fcc565b6003820160006107699190611fcc565b6004820160006101000a81549067ffffffffffffffff021916905560058201600080820160009055600182016000905560028201600090556003820160009055600482016000905560058201600090556006820160006107c99190611fcc565b5050600c820160006101000a81549060ff0219169055505050565b8160006002600083815260200190815260200160002060000160009054906101000a900473ffffffffffffffffffffffffffffffffffffffff1690508073ffffffffffffffffffffffffffffffffffffffff163373ffffffffffffffffffffffffffffffffffffffff1614806108a75750600460009054906101000a900473ffffffffffffffffffffffffffffffffffffffff1673ffffffffffffffffffffffffffffffffffffffff163373ffffffffffffffffffffffffffffffffffffffff16145b6108e6576040517f08c379a00000000000000000000000000000000000000000000000000000000081526004016108dd90612886565b60405180910390fd5b600073ffffffffffffffffffffffffffffffffffffffff168373ffffffffffffffffffffffffffffffffffffffff1603610955576040517f08c379a000000000000000000000000000000000000000000000000000000000815260040161094c9061295e565b60405180910390fd5b60016003600086815260200190815260200160002060008573ffffffffffffffffffffffffffffffffffffffff1673ffffffffffffffffffffffffffffffffffffffff16815260200190815260200160002060006101000a81548160ff0219169083151502179055508273ffffffffffffffffffffffffffffffffffffffff166002600086815260200190815260200160002060000160009054906101000a900473ffffffffffffffffffffffffffffffffffffffff1673ffffffffffffffffffffffffffffffffffffffff16857f97a8264d9d0b9e21370349f9b49be012a5d1e27829879df8ba166dba48f898c660405160405180910390a450505050565b6060600080600190505b6001548111610af3578373ffffffffffffffffffffffffffffffffffffffff166002600083815260200190815260200160002060000160009054906101000a900473ffffffffffffffffffffffffffffffffffffffff1673ffffffffffffffffffffffffffffffffffffffff1603610ae0578180610adc906129ad565b9250505b8080610aeb906129ad565b915050610a5f565b5060008167ffffffffffffffff811115610b1057610b0f6129f5565b5b604051908082528060200260200182016040528015610b3e5781602001602082028036833780820191505090505b509050600080600190505b6001548111610bfd578573ffffffffffffffffffffffffffffffffffffffff166002600083815260200190815260200160002060000160009054906101000a900473ffffffffffffffffffffffffffffffffffffffff1673ffffffffffffffffffffffffffffffffffffffff1603610bea5780838381518110610bcf57610bce612a24565b5b6020026020010181815250508180610be6906129ad565b9250505b8080610bf5906129ad565b915050610b49565b50819350505050919050565b6000806000806000806060600080600260008b81526020019081526020016000206040518060e00160405290816000820160009054906101000a900473ffffffffffffffffffffffffffffffffffffffff1673ffffffffffffffffffffffffffffffffffffffff1673ffffffffffffffffffffffffffffffffffffffff16815260200160018201548152602001600282018054610ca590612809565b80601f0160208091040260200160405190810160405280929190818152602001828054610cd190612809565b8015610d1e5780601f10610cf357610100808354040283529160200191610d1e565b820191906000526020600020905b815481529060010190602001808311610d0157829003601f168201915b50505050508152602001600382018054610d3790612809565b80601f0160208091040260200160405190810160405280929190818152602001828054610d6390612809565b8015610db05780601f10610d8557610100808354040283529160200191610db0565b820191906000526020600020905b815481529060010190602001808311610d9357829003601f168201915b505050505081526020016004820160009054906101000a900467ffffffffffffffff1667ffffffffffffffff1667ffffffffffffffff168152602001600582016040518060e0016040529081600082015481526020016001820154815260200160028201548152602001600382015481526020016004820154815260200160058201548152602001600682018054610e4790612809565b80601f0160208091040260200160405190810160405280929190818152602001828054610e7390612809565b8015610ec05780601f10610e9557610100808354040283529160200191610ec0565b820191906000526020600020905b815481529060010190602001808311610ea357829003601f168201915b5050505050815250508152602001600c820160009054906101000a900460ff1615151515815250509050600073ffffffffffffffffffffffffffffffffffffffff16816000015173ffffffffffffffffffffffffffffffffffffffff1603610f5d576040517f08c379a0000000000000000000000000000000000000000000000000000000008152600401610f54906128f2565b60405180910390fd5b8060a00151600001518160a00151602001518260a00151604001518360a00151606001518460a00151608001518560a0015160a001518660a0015160c001518760c001519850985098509850985098509850985050919395975091939597565b610fc5611e79565b610fcf6000611f00565b565b610fd9611e79565b600073ffffffffffffffffffffffffffffffffffffffff168173ffffffffffffffffffffffffffffffffffffffff1603611048576040517f08c379a000000000000000000000000000000000000000000000000000000000815260040161103f90612a9f565b60405180910390fd5b80600460006101000a81548173ffffffffffffffffffffffffffffffffffffffff021916908373ffffffffffffffffffffffffffffffffffffffff1602179055508073ffffffffffffffffffffffffffffffffffffffff167f78fd71746fd8724dd16b5a93e765a076614159ebdc73d996a6a8884f358898e560405160405180910390a250565b60015481565b60008060009054906101000a900473ffffffffffffffffffffffffffffffffffffffff16905090565b600460009054906101000a900473ffffffffffffffffffffffffffffffffffffffff1681565b60008060001b870361116b576040517f08c379a000000000000000000000000000000000000000000000000000000000815260040161116290612b0b565b60405180910390fd5b600082600001351180611182575060008260200135115b80611191575060008260600135115b6111d0576040517f08c379a00000000000000000000000000000000000000000000000000000000081526004016111c790612b77565b60405180910390fd5b60006001600081546111e1906129ad565b91905081905590506040518060e001604052803373ffffffffffffffffffffffffffffffffffffffff16815260200189815260200188888080601f016020809104026020016040519081016040528093929190818152602001838380828437600081840152601f19601f82011690508083019250505050505050815260200186868080601f016020809104026020016040519081016040528093929190818152602001838380828437600081840152601f19601f8201169050808301925050505050505081526020014267ffffffffffffffff168152602001846112c490612d72565b8152602001600115158152506002600083815260200190815260200160002060008201518160000160006101000a81548173ffffffffffffffffffffffffffffffffffffffff021916908373ffffffffffffffffffffffffffffffffffffffff1602179055506020820151816001015560408201518160020190816113499190612f31565b50606082015181600301908161135f9190612f31565b5060808201518160040160006101000a81548167ffffffffffffffff021916908367ffffffffffffffff16021790555060a082015181600501600082015181600001556020820151816001015560408201518160020155606082015181600301556080820151816004015560a0820151816005015560c08201518160060190816113e99190612f31565b50505060c082015181600c0160006101000a81548160ff0219169083151502179055509050503373ffffffffffffffffffffffffffffffffffffffff16817fca224cbeb173a71e085d7e5d1f7d0f2269e92fa0482455cf907b66a40f53d1ea8a8a8a8a8a600160405161146196959493929190613030565b60405180910390a3809150509695505050505050565b60036020528160005260406000206020528060005260406000206000915091509054906101000a900460ff1681565b600080600260008581526020019081526020016000206040518060e00160405290816000820160009054906101000a900473ffffffffffffffffffffffffffffffffffffffff1673ffffffffffffffffffffffffffffffffffffffff1673ffffffffffffffffffffffffffffffffffffffff1681526020016001820154815260200160028201805461153790612809565b80601f016020809104026020016040519081016040528092919081815260200182805461156390612809565b80156115b05780601f10611585576101008083540402835291602001916115b0565b820191906000526020600020905b81548152906001019060200180831161159357829003601f168201915b505050505081526020016003820180546115c990612809565b80601f01602080910402602001604051908101604052809291908181526020018280546115f590612809565b80156116425780601f1061161757610100808354040283529160200191611642565b820191906000526020600020905b81548152906001019060200180831161162557829003601f168201915b505050505081526020016004820160009054906101000a900467ffffffffffffffff1667ffffffffffffffff1667ffffffffffffffff168152602001600582016040518060e00160405290816000820154815260200160018201548152602001600282015481526020016003820154815260200160048201548152602001600582015481526020016006820180546116d990612809565b80601f016020809104026020016040519081016040528092919081815260200182805461170590612809565b80156117525780601f1061172757610100808354040283529160200191611752565b820191906000526020600020905b81548152906001019060200180831161173557829003601f168201915b5050505050815250508152602001600c820160009054906101000a900460ff1615151515815250509050600073ffffffffffffffffffffffffffffffffffffffff16816000015173ffffffffffffffffffffffffffffffffffffffff16036117be576000915050611861565b806000015173ffffffffffffffffffffffffffffffffffffffff168373ffffffffffffffffffffffffffffffffffffffff16036117ff576001915050611861565b6003600085815260200190815260200160002060008473ffffffffffffffffffffffffffffffffffffffff1673ffffffffffffffffffffffffffffffffffffffff16815260200190815260200160002060009054906101000a900460ff169150505b92915050565b8160006002600083815260200190815260200160002060000160009054906101000a900473ffffffffffffffffffffffffffffffffffffffff1690508073ffffffffffffffffffffffffffffffffffffffff163373ffffffffffffffffffffffffffffffffffffffff16148061192a5750600460009054906101000a900473ffffffffffffffffffffffffffffffffffffffff1673ffffffffffffffffffffffffffffffffffffffff163373ffffffffffffffffffffffffffffffffffffffff16145b611969576040517f08c379a000000000000000000000000000000000000000000000000000000000815260040161196090612886565b60405180910390fd5b6003600085815260200190815260200160002060008473ffffffffffffffffffffffffffffffffffffffff1673ffffffffffffffffffffffffffffffffffffffff16815260200190815260200160002060009054906101000a900460ff16611a06576040517f08c379a00000000000000000000000000000000000000000000000000000000081526004016119fd906130d3565b60405180910390fd5b60006003600086815260200190815260200160002060008573ffffffffffffffffffffffffffffffffffffffff1673ffffffffffffffffffffffffffffffffffffffff16815260200190815260200160002060006101000a81548160ff0219169083151502179055508273ffffffffffffffffffffffffffffffffffffffff166002600086815260200190815260200160002060000160009054906101000a900473ffffffffffffffffffffffffffffffffffffffff1673ffffffffffffffffffffffffffffffffffffffff16857f260547d4038414ef72f081dcde91825693dff9bc433178f3e92ad36e0cd2275060405160405180910390a450505050565b60008060001b8603611b4d576040517f08c379a0000000000000000000000000000000000000000000000000000000008152600401611b4490612b0b565b60405180910390fd5b6000600160008154611b5e906129ad565b9190508190559050611b6e61200c565b6040518060e001604052803373ffffffffffffffffffffffffffffffffffffffff16815260200189815260200188888080601f016020809104026020016040519081016040528093929190818152602001838380828437600081840152601f19601f82011690508083019250505050505050815260200186868080601f016020809104026020016040519081016040528093929190818152602001838380828437600081840152601f19601f8201169050808301925050505050505081526020014267ffffffffffffffff168152602001828152602001600015158152506002600084815260200190815260200160002060008201518160000160006101000a81548173ffffffffffffffffffffffffffffffffffffffff021916908373ffffffffffffffffffffffffffffffffffffffff160217905550602082015181600101556040820151816002019081611cc59190612f31565b506060820151816003019081611cdb9190612f31565b5060808201518160040160006101000a81548167ffffffffffffffff021916908367ffffffffffffffff16021790555060a082015181600501600082015181600001556020820151816001015560408201518160020155606082015181600301556080820151816004015560a0820151816005015560c0820151816006019081611d659190612f31565b50505060c082015181600c0160006101000a81548160ff0219169083151502179055509050503373ffffffffffffffffffffffffffffffffffffffff16827fca224cbeb173a71e085d7e5d1f7d0f2269e92fa0482455cf907b66a40f53d1ea8a8a8a8a8a6000604051611ddd96959493929190613030565b60405180910390a3819250505095945050505050565b611dfb611e79565b600073ffffffffffffffffffffffffffffffffffffffff168173ffffffffffffffffffffffffffffffffffffffff1603611e6d5760006040517f1e4fbdf7000000000000000000000000000000000000000000000000000000008152600401611e649190612597565b60405180910390fd5b611e7681611f00565b50565b611e81611fc4565b73ffffffffffffffffffffffffffffffffffffffff16611e9f6110d5565b73ffffffffffffffffffffffffffffffffffffffff1614611efe57611ec2611fc4565b6040517f118cdaa7000000000000000000000000000000000000000000000000000000008152600401611ef59190612597565b60405180910390fd5b565b60008060009054906101000a900473ffffffffffffffffffffffffffffffffffffffff169050816000806101000a81548173ffffffffffffffffffffffffffffffffffffffff021916908373ffffffffffffffffffffffffffffffffffffffff1602179055508173ffffffffffffffffffffffffffffffffffffffff168173ffffffffffffffffffffffffffffffffffffffff167f8be0079c531659141344cd1fd0a4f28419497f9722a3daafe3b4186f6b6457e060405160405180910390a35050565b600033905090565b508054611fd890612809565b6000825580601f10611fea5750612009565b601f0160209004906000526020600020908101906120089190612049565b5b50565b6040518060e00160405280600081526020016000815260200160008152602001600081526020016000815260200160008152602001606081525090565b5b8082111561206257600081600090555060010161204a565b5090565b6000604051905090565b600080fd5b600080fd5b6000819050919050565b61208d8161207a565b811461209857600080fd5b50565b6000813590506120aa81612084565b92915050565b6000602082840312156120c6576120c5612070565b5b60006120d48482850161209b565b91505092915050565b600073ffffffffffffffffffffffffffffffffffffffff82169050919050565b6000612108826120dd565b9050919050565b612118816120fd565b82525050565b6000819050919050565b6121318161211e565b82525050565b600081519050919050565b600082825260208201905092915050565b60005b83811015612171578082015181840152602081019050612156565b60008484015250505050565b6000601f19601f8301169050919050565b600061219982612137565b6121a38185612142565b93506121b3818560208601612153565b6121bc8161217d565b840191505092915050565b600067ffffffffffffffff82169050919050565b6121e4816121c7565b82525050565b6121f38161207a565b82525050565b600082825260208201905092915050565b600061221582612137565b61221f81856121f9565b935061222f818560208601612153565b6122388161217d565b840191505092915050565b600060e08301600083015161225b60008601826121ea565b50602083015161226e60208601826121ea565b50604083015161228160408601826121ea565b50606083015161229460608601826121ea565b5060808301516122a760808601826121ea565b5060a08301516122ba60a08601826121ea565b5060c083015184820360c08601526122d2828261220a565b9150508091505092915050565b60008115159050919050565b6122f4816122df565b82525050565b600060e08201905061230f600083018a61210f565b61231c6020830189612128565b818103604083015261232e818861218e565b90508181036060830152612342818761218e565b905061235160808301866121db565b81810360a08301526123638185612243565b905061237260c08301846122eb565b98975050505050505050565b612387816120fd565b811461239257600080fd5b50565b6000813590506123a48161237e565b92915050565b600080604083850312156123c1576123c0612070565b5b60006123cf8582860161209b565b92505060206123e085828601612395565b9150509250929050565b600060208284031215612400576123ff612070565b5b600061240e84828501612395565b91505092915050565b600081519050919050565b600082825260208201905092915050565b6000819050602082019050919050565b600061244f83836121ea565b60208301905092915050565b6000602082019050919050565b600061247382612417565b61247d8185612422565b935061248883612433565b8060005b838110156124b95781516124a08882612443565b97506124ab8361245b565b92505060018101905061248c565b5085935050505092915050565b600060208201905081810360008301526124e08184612468565b905092915050565b6124f18161207a565b82525050565b60006101008201905061250d600083018b6124e8565b61251a602083018a6124e8565b61252760408301896124e8565b61253460608301886124e8565b61254160808301876124e8565b61254e60a08301866124e8565b81810360c0830152612560818561218e565b905061256f60e08301846122eb565b9998505050505050505050565b600060208201905061259160008301846124e8565b92915050565b60006020820190506125ac600083018461210f565b92915050565b6125bb8161211e565b81146125c657600080fd5b50565b6000813590506125d8816125b2565b92915050565b600080fd5b600080fd5b600080fd5b60008083601f840112612603576126026125de565b5b8235905067ffffffffffffffff8111156126205761261f6125e3565b5b60208301915083600182028301111561263c5761263b6125e8565b5b9250929050565b600080fd5b600060e0828403121561265e5761265d612643565b5b81905092915050565b6000806000806000806080878903121561268457612683612070565b5b600061269289828a016125c9565b965050602087013567ffffffffffffffff8111156126b3576126b2612075565b5b6126bf89828a016125ed565b9550955050604087013567ffffffffffffffff8111156126e2576126e1612075565b5b6126ee89828a016125ed565b9350935050606087013567ffffffffffffffff81111561271157612710612075565b5b61271d89828a01612648565b9150509295509295509295565b600060208201905061273f60008301846122eb565b92915050565b60008060008060006060868803121561276157612760612070565b5b600061276f888289016125c9565b955050602086013567ffffffffffffffff8111156127905761278f612075565b5b61279c888289016125ed565b9450945050604086013567ffffffffffffffff8111156127bf576127be612075565b5b6127cb888289016125ed565b92509250509295509295909350565b7f4e487b7100000000000000000000000000000000000000000000000000000000600052602260045260246000fd5b6000600282049050600182168061282157607f821691505b602082108103612834576128336127da565b5b50919050565b7f4e6f742064617461206f776e6572000000000000000000000000000000000000600082015250565b6000612870600e83612142565b915061287b8261283a565b602082019050919050565b6000602082019050818103600083015261289f81612863565b9050919050565b7f44617461206e6f7420666f756e64000000000000000000000000000000000000600082015250565b60006128dc600e83612142565b91506128e7826128a6565b602082019050919050565b6000602082019050818103600083015261290b816128cf565b9050919050565b7f496e76616c6964206772616e7465650000000000000000000000000000000000600082015250565b6000612948600f83612142565b915061295382612912565b602082019050919050565b600060208201905081810360008301526129778161293b565b9050919050565b7f4e487b7100000000000000000000000000000000000000000000000000000000600052601160045260246000fd5b60006129b88261207a565b91507fffffffffffffffffffffffffffffffffffffffffffffffffffffffffffffffff82036129ea576129e961297e565b5b600182019050919050565b7f4e487b7100000000000000000000000000000000000000000000000000000000600052604160045260246000fd5b7f4e487b7100000000000000000000000000000000000000000000000000000000600052603260045260246000fd5b7f496e76616c6964206d61726b6574706c61636500000000000000000000000000600082015250565b6000612a89601383612142565b9150612a9482612a53565b602082019050919050565b60006020820190508181036000830152612ab881612a7c565b9050919050565b7f496e76616c696420646174612068617368000000000000000000000000000000600082015250565b6000612af5601183612142565b9150612b0082612abf565b602082019050919050565b60006020820190508181036000830152612b2481612ae8565b9050919050565b7f4d6574726963732063616e6e6f7420626520616c6c207a65726f000000000000600082015250565b6000612b61601a83612142565b9150612b6c82612b2b565b602082019050919050565b60006020820190508181036000830152612b9081612b54565b9050919050565b600080fd5b612ba58261217d565b810181811067ffffffffffffffff82111715612bc457612bc36129f5565b5b80604052505050565b6000612bd7612066565b9050612be38282612b9c565b919050565b600080fd5b600080fd5b600067ffffffffffffffff821115612c0d57612c0c6129f5565b5b612c168261217d565b9050602081019050919050565b82818337600083830152505050565b6000612c45612c4084612bf2565b612bcd565b905082815260208101848484011115612c6157612c60612bed565b5b612c6c848285612c23565b509392505050565b600082601f830112612c8957612c886125de565b5b8135612c99848260208601612c32565b91505092915050565b600060e08284031215612cb857612cb7612b97565b5b612cc260e0612bcd565b90506000612cd28482850161209b565b6000830152506020612ce68482850161209b565b6020830152506040612cfa8482850161209b565b6040830152506060612d0e8482850161209b565b6060830152506080612d228482850161209b565b60808301525060a0612d368482850161209b565b60a08301525060c082013567ffffffffffffffff811115612d5a57612d59612be8565b5b612d6684828501612c74565b60c08301525092915050565b6000612d7e3683612ca2565b9050919050565b60008190508160005260206000209050919050565b60006020601f8301049050919050565b600082821b905092915050565b600060088302612de77fffffffffffffffffffffffffffffffffffffffffffffffffffffffffffffffff82612daa565b612df18683612daa565b95508019841693508086168417925050509392505050565b6000819050919050565b6000612e2e612e29612e248461207a565b612e09565b61207a565b9050919050565b6000819050919050565b612e4883612e13565b612e5c612e5482612e35565b848454612db7565b825550505050565b600090565b612e71612e64565b612e7c818484612e3f565b505050565b5b81811015612ea057612e95600082612e69565b600181019050612e82565b5050565b601f821115612ee557612eb681612d85565b612ebf84612d9a565b81016020851015612ece578190505b612ee2612eda85612d9a565b830182612e81565b50505b505050565b600082821c905092915050565b6000612f0860001984600802612eea565b1980831691505092915050565b6000612f218383612ef7565b9150826002028217905092915050565b612f3a82612137565b67ffffffffffffffff811115612f5357612f526129f5565b5b612f5d8254612809565b612f68828285612ea4565b600060209050601f831160018114612f9b5760008415612f89578287015190505b612f938582612f15565b865550612ffb565b601f198416612fa986612d85565b60005b82811015612fd157848901518255600182019150602085019450602081019050612fac565b86831015612fee5784890151612fea601f891682612ef7565b8355505b6001600288020188555050505b505050505050565b600061300f8385612142565b935061301c838584612c23565b6130258361217d565b840190509392505050565b60006080820190506130456000830189612128565b8181036020830152613058818789613003565b9050818103604083015261306d818587613003565b905061307c60608301846122eb565b979650505050505050565b7f4e6f2061636365737320746f207265766f6b6500000000000000000000000000600082015250565b60006130bd601383612142565b91506130c882613087565b602082019050919050565b600060208201905081810360008301526130ec816130b0565b905091905056fea2646970667358221220574df09620465d287cc82c81d62a54e669cbd6a9a2bd3816cf7df04c0684235b64736f6c63430008140033",
  "linkReferences": {},
  "deployedLinkReferences": {}
}