{
  "_format": "hh-sol-artifact-1",
  "contractName": "Marketplace",
  "sourceName": "contracts/Marketplace.sol",
  "abi": [
    {
      "inputs": [
        {
          "internalType": "address",
          "name": "tokenAddress",
          "type": "address"
        },
        {
          "internalType": "address",
          "name": "registryAddress",
          "type": "address"
        }
      ],
      "stateMutability": "nonpayable",
      "type": "constructor"
    },
    {
      "anonymous": false,
      "inputs": [
        {
          "indexed": true,
          "internalType": "uint256",
          "name": "listingId",
          "type": "uint256"
        },
        {
          "indexed": true,
          "internalType": "uint256",
          "name": "dataId",
          "type": "uint256"
        },
        {
          "indexed": true,
          "internalType": "address",
          "name": "buyer",
          "type": "address"
        },
        {
          "indexed": false,
          "internalType": "uint256",
          "name": "price",
          "type": "uint256"
        }
      ],
      "name": "AccessPurchased",
      "type": "event"
    },
    {
      "anonymous": false,
      "inputs": [
        {
          "indexed": true,
          "internalType": "uint256",
          "name": "listingId",
          "type": "uint256"
        }
      ],
      "name": "ListingCancelled",
      "type": "event"
    },
    {
      "anonymous": false,
      "inputs": [
        {
          "indexed": true,
          "internalType": "uint256",
          "name": "listingId",
          "type": "uint256"
        },
        {
          "indexed": true,
          "internalType": "uint256",
          "name": "dataId",
          "type": "uint256"
        },
        {
          "indexed": true,
          "internalType": "address",
          "name": "seller",
          "type": "address"
        },
        {
          "indexed": false,
          "internalType": "uint256",
          "name": "price",
          "type": "uint256"
        }
      ],
      "name": "ListingCreated",
      "type": "event"
    },
    {
      "inputs": [
        {
          "internalType": "uint256",
          "name": "listingId",
          "type": "uint256"
        }
      ],
      "name": "buyAccess",
      "outputs": [],
      "stateMutability": "nonpayable",
      "type": "function"
    },
    {
      "inputs": [
        {
          "internalType": "uint256",
          "name": "listingId",
          "type": "uint256"
        }
      ],
      "name": "cancelListing",
      "outputs": [],
      "stateMutability": "nonpayable",
      "type": "function"
    },
    {
      "inputs": [
        {
          "internalType": "uint256",
          "name": "dataId",
          "type": "uint256"
        },
        {
          "internalType": "uint256",
          "name": "price",
          "type": "uint256"
        }
      ],
      "name": "createListing",
      "outputs": [
        {
          "internalType": "uint256",
          "name": "",
          "type": "uint256"
        }
      ],
      "stateMutability": "nonpayable",
      "type": "function"
    },
    {
      "inputs": [],
      "name": "getActiveListings",
      "outputs": [
        {
          "internalType": "uint256[]",
          "name": "",
          "type": "uint256[]"
        }
      ],
      "stateMutability": "view",
      "type": "function"
    },
    {
      "inputs": [
        {
          "internalType": "uint256",
          "name": "listingId",
          "type": "uint256"
        }
      ],
      "name": "getListingHealthPreview",
      "outputs": [
        {
          "internalType": "uint256",
          "name": "steps",
          "type": "uint256"
        },
        {
          "internalType": "uint256",
          "name": "heartRate",
          "type": "uint256"
        },
        {
          "internalType": "uint256",
          "name": "calories",
          "type": "uint256"
        },
        {
          "internalType": "string",
          "name": "metricType",
          "type": "string"
        },
        {
          "internalType": "bool",
          "name": "hasMetrics",
          "type": "bool"
        }
      ],
      "stateMutability": "view",
      "type": "function"
    },
    {
      "inputs": [],
      "name": "htc",
      "outputs": [
        {
          "internalType": "contract IERC20",
          "name": "",
          "type": "address"
        }
      ],
      "stateMutability": "view",
      "type": "function"
    },
    {
      "inputs": [
        {
          "internalType": "uint256",
          "name": "",
          "type": "uint256"
        }
      ],
      "name": "listings",
      "outputs": [
        {
          "internalType": "uint256",
          "name": "id",
          "type": "uint256"
        },
        {
          "internalType": "uint256",
          "name": "dataId",
          "type": "uint256"
        },
        {
          "internalType": "address",
          "name": "seller",
          "type": "address"
        },
        {
          "internalType": "uint256",
          "name": "price",
          "type": "uint256"
        },
        {
          "internalType": "bool",
          "name": "active",
          "type": "bool"
        }
      ],
      "stateMutability": "view",
      "type": "function"
    },
    {
      "inputs": [],
      "name": "nextListingId",
      "outputs": [
        {
          "internalType": "uint256",
          "name": "",
          "type": "uint256"
        }
      ],
      "stateMutability": "view",
      "type": "function"
    },
    {
      "inputs": [],
      "name": "registry",
      "outputs": [
        {
          "internalType": "contract IDataRegistry",
          "name": "",
          "type": "address"
        }
      ],
      "stateMutability": "view",
      "type": "function"
    }
  ],
  "bytecode": "0x60c06040523480156200001157600080fd5b5060405162001f1038038062001f108339818101604052810190620000379190620001f5565b600073ffffffffffffffffffffffffffffffffffffffff168273ffffffffffffffffffffffffffffffffffffffff1603620000a9576040517f08c379a0000000000000000000000000000000000000000000000000000000008152600401620000a0906200029d565b60405180910390fd5b600073ffffffffffffffffffffffffffffffffffffffff168173ffffffffffffffffffffffffffffffffffffffff16036200011b576040517f08c379a000000000000000000000000000000000000000000000000000000000815260040162000112906200030f565b60405180910390fd5b8173ffffffffffffffffffffffffffffffffffffffff1660808173ffffffffffffffffffffffffffffffffffffffff16815250508073ffffffffffffffffffffffffffffffffffffffff1660a08173ffffffffffffffffffffffffffffffffffffffff1681525050505062000331565b600080fd5b600073ffffffffffffffffffffffffffffffffffffffff82169050919050565b6000620001bd8262000190565b9050919050565b620001cf81620001b0565b8114620001db57600080fd5b50565b600081519050620001ef81620001c4565b92915050565b600080604083850312156200020f576200020e6200018b565b5b60006200021f85828601620001de565b92505060206200023285828601620001de565b9150509250929050565b600082825260208201905092915050565b7f496e76616c696420746f6b656e00000000000000000000000000000000000000600082015250565b600062000285600d836200023c565b915062000292826200024d565b602082019050919050565b60006020820190508181036000830152620002b88162000276565b9050919050565b7f496e76616c696420726567697374727900000000000000000000000000000000600082015250565b6000620002f76010836200023c565b91506200030482620002bf565b602082019050919050565b600060208201905081810360008301526200032a81620002e8565b9050919050565b60805160a051611b9d62000373600039600081816105eb015281816106d6015281816108720152610c7e0152600081816101e101526104e50152611b9d6000f3fe608060405234801561001057600080fd5b50600436106100925760003560e01c806387c35bc01161006657806387c35bc01461010b578063a79123a914610129578063aaccf1ec14610159578063b1db85b914610177578063de74e57b146101ab57610092565b8062e0392114610097578063305a67a8146100b557806350a1a264146100d15780637b103999146100ed575b600080fd5b61009f6101df565b6040516100ac9190610e2c565b60405180910390f35b6100cf60048036038101906100ca9190610e91565b610203565b005b6100eb60048036038101906100e69190610e91565b61034b565b005b6100f56106d4565b6040516101029190610edf565b60405180910390f35b6101136106f8565b6040516101209190610fb8565b60405180910390f35b610143600480360381019061013e9190610fda565b61082a565b6040516101509190611029565b60405180910390f35b610161610b42565b60405161016e9190611029565b60405180910390f35b610191600480360381019061018c9190610e91565b610b48565b6040516101a29594939291906110ef565b60405180910390f35b6101c560048036038101906101c09190610e91565b610d4a565b6040516101d695949392919061116a565b60405180910390f35b7f000000000000000000000000000000000000000000000000000000000000000081565b60006001600083815260200190815260200160002090508060040160009054906101000a900460ff1661026b576040517f08c379a000000000000000000000000000000000000000000000000000000000815260040161026290611209565b60405180910390fd5b3373ffffffffffffffffffffffffffffffffffffffff168160020160009054906101000a900473ffffffffffffffffffffffffffffffffffffffff1673ffffffffffffffffffffffffffffffffffffffff16146102fd576040517f08c379a00000000000000000000000000000000000000000000000000000000081526004016102f490611275565b60405180910390fd5b60008160040160006101000a81548160ff021916908315150217905550817f411aee90354c51b1b04cd563fcab2617142a9d50da19232d888547c8a1b7fd8a60405160405180910390a25050565b60006001600083815260200190815260200160002090508060040160009054906101000a900460ff166103b3576040517f08c379a00000000000000000000000000000000000000000000000000000000081526004016103aa90611209565b60405180910390fd5b600073ffffffffffffffffffffffffffffffffffffffff168160020160009054906101000a900473ffffffffffffffffffffffffffffffffffffffff1673ffffffffffffffffffffffffffffffffffffffff1603610446576040517f08c379a000000000000000000000000000000000000000000000000000000000815260040161043d906112e1565b60405180910390fd5b8060020160009054906101000a900473ffffffffffffffffffffffffffffffffffffffff1673ffffffffffffffffffffffffffffffffffffffff163373ffffffffffffffffffffffffffffffffffffffff16036104d8576040517f08c379a00000000000000000000000000000000000000000000000000000000081526004016104cf9061134d565b60405180910390fd5b60008160030154905060007f000000000000000000000000000000000000000000000000000000000000000073ffffffffffffffffffffffffffffffffffffffff166323b872dd338560020160009054906101000a900473ffffffffffffffffffffffffffffffffffffffff16856040518463ffffffff1660e01b81526004016105649392919061136d565b6020604051808303816000875af1158015610583573d6000803e3d6000fd5b505050506040513d601f19601f820116820180604052508101906105a791906113d0565b9050806105e9576040517f08c379a00000000000000000000000000000000000000000000000000000000081526004016105e090611449565b60405180910390fd5b7f000000000000000000000000000000000000000000000000000000000000000073ffffffffffffffffffffffffffffffffffffffff166365dd152c8460010154336040518363ffffffff1660e01b8152600401610648929190611469565b600060405180830381600087803b15801561066257600080fd5b505af1158015610676573d6000803e3d6000fd5b505050503373ffffffffffffffffffffffffffffffffffffffff168360010154857fca8b919b7ad626f10fa4e659ed1e084213af2ffedc91544e6846d4c135a09775856040516106c69190611029565b60405180910390a450505050565b7f000000000000000000000000000000000000000000000000000000000000000081565b6060600080600190505b6000548111610756576001600082815260200190815260200160002060040160009054906101000a900460ff161561074357818061073f906114c1565b9250505b808061074e906114c1565b915050610702565b5060008167ffffffffffffffff81111561077357610772611509565b5b6040519080825280602002602001820160405280156107a15781602001602082028036833780820191505090505b509050600080600190505b6000548111610820576001600082815260200190815260200160002060040160009054906101000a900460ff161561080d57808383815181106107f2576107f1611538565b5b6020026020010181815250508180610809906114c1565b9250505b8080610818906114c1565b9150506107ac565b5081935050505090565b600080821161086e576040517f08c379a0000000000000000000000000000000000000000000000000000000008152600401610865906115b3565b60405180910390fd5b60007f000000000000000000000000000000000000000000000000000000000000000073ffffffffffffffffffffffffffffffffffffffff166334461067856040518263ffffffff1660e01b81526004016108c99190611029565b600060405180830381865afa1580156108e6573d6000803e3d6000fd5b505050506040513d6000823e3d601f19601f8201168201806040525081019061090f919061185b565b5050505050509050600073ffffffffffffffffffffffffffffffffffffffff168173ffffffffffffffffffffffffffffffffffffffff1603610986576040517f08c379a000000000000000000000000000000000000000000000000000000000815260040161097d9061199d565b60405180910390fd5b3373ffffffffffffffffffffffffffffffffffffffff168173ffffffffffffffffffffffffffffffffffffffff16146109f4576040517f08c379a00000000000000000000000000000000000000000000000000000000081526004016109eb90611a09565b60405180910390fd5b60008060008154610a04906114c1565b91905081905590506040518060a001604052808281526020018681526020013373ffffffffffffffffffffffffffffffffffffffff1681526020018581526020016001151581525060016000838152602001908152602001600020600082015181600001556020820151816001015560408201518160020160006101000a81548173ffffffffffffffffffffffffffffffffffffffff021916908373ffffffffffffffffffffffffffffffffffffffff1602179055506060820151816003015560808201518160040160006101000a81548160ff0219169083151502179055509050503373ffffffffffffffffffffffffffffffffffffffff1685827f8093adc67e6531e4dcb9f96fe66947096b91ad10573e8136f8ef1a1cebe2fad687604051610b2f9190611029565b60405180910390a4809250505092915050565b60005481565b60008060006060600080600160008881526020019081526020016000206040518060a001604052908160008201548152602001600182015481526020016002820160009054906101000a900473ffffffffffffffffffffffffffffffffffffffff1673ffffffffffffffffffffffffffffffffffffffff1673ffffffffffffffffffffffffffffffffffffffff168152602001600382015481526020016004820160009054906101000a900460ff1615151515815250509050600073ffffffffffffffffffffffffffffffffffffffff16816040015173ffffffffffffffffffffffffffffffffffffffff1603610c74576040517f08c379a0000000000000000000000000000000000000000000000000000000008152600401610c6b90611a75565b60405180910390fd5b60008060008060007f000000000000000000000000000000000000000000000000000000000000000073ffffffffffffffffffffffffffffffffffffffff16636a7aaf9487602001516040518263ffffffff1660e01b8152600401610cd99190611029565b600060405180830381865afa158015610cf6573d6000803e3d6000fd5b505050506040513d6000823e3d601f19601f82011682018060405250810190610d1f9190611a95565b9750975050509550509450945084848484849a509a509a509a509a5050505050505091939590929450565b60016020528060005260406000206000915090508060000154908060010154908060020160009054906101000a900473ffffffffffffffffffffffffffffffffffffffff16908060030154908060040160009054906101000a900460ff16905085565b600073ffffffffffffffffffffffffffffffffffffffff82169050919050565b6000819050919050565b6000610df2610ded610de884610dad565b610dcd565b610dad565b9050919050565b6000610e0482610dd7565b9050919050565b6000610e1682610df9565b9050919050565b610e2681610e0b565b82525050565b6000602082019050610e416000830184610e1d565b92915050565b6000604051905090565b600080fd5b600080fd5b6000819050919050565b610e6e81610e5b565b8114610e7957600080fd5b50565b600081359050610e8b81610e65565b92915050565b600060208284031215610ea757610ea6610e51565b5b6000610eb584828501610e7c565b91505092915050565b6000610ec982610df9565b9050919050565b610ed981610ebe565b82525050565b6000602082019050610ef46000830184610ed0565b92915050565b600081519050919050565b600082825260208201905092915050565b6000819050602082019050919050565b610f2f81610e5b565b82525050565b6000610f418383610f26565b60208301905092915050565b6000602082019050919050565b6000610f6582610efa565b610f6f8185610f05565b9350610f7a83610f16565b8060005b83811015610fab578151610f928882610f35565b9750610f9d83610f4d565b925050600181019050610f7e565b5085935050505092915050565b60006020820190508181036000830152610fd28184610f5a565b905092915050565b60008060408385031215610ff157610ff0610e51565b5b6000610fff85828601610e7c565b925050602061101085828601610e7c565b9150509250929050565b61102381610e5b565b82525050565b600060208201905061103e600083018461101a565b92915050565b600081519050919050565b600082825260208201905092915050565b60005b8381101561107e578082015181840152602081019050611063565b60008484015250505050565b6000601f19601f8301169050919050565b60006110a682611044565b6110b0818561104f565b93506110c0818560208601611060565b6110c98161108a565b840191505092915050565b60008115159050919050565b6110e9816110d4565b82525050565b600060a082019050611104600083018861101a565b611111602083018761101a565b61111e604083018661101a565b8181036060830152611130818561109b565b905061113f60808301846110e0565b9695505050505050565b600061115482610dad565b9050919050565b61116481611149565b82525050565b600060a08201905061117f600083018861101a565b61118c602083018761101a565b611199604083018661115b565b6111a6606083018561101a565b6111b360808301846110e0565b9695505050505050565b7f4e6f742061637469766500000000000000000000000000000000000000000000600082015250565b60006111f3600a8361104f565b91506111fe826111bd565b602082019050919050565b60006020820190508181036000830152611222816111e6565b9050919050565b7f4e6f742073656c6c657200000000000000000000000000000000000000000000600082015250565b600061125f600a8361104f565b915061126a82611229565b602082019050919050565b6000602082019050818103600083015261128e81611252565b9050919050565b7f4c697374696e67206d697373696e670000000000000000000000000000000000600082015250565b60006112cb600f8361104f565b91506112d682611295565b602082019050919050565b600060208201905081810360008301526112fa816112be565b9050919050565b7f53656c6c65722063616e6e6f7420627579000000000000000000000000000000600082015250565b600061133760118361104f565b915061134282611301565b602082019050919050565b600060208201905081810360008301526113668161132a565b9050919050565b6000606082019050611382600083018661115b565b61138f602083018561115b565b61139c604083018461101a565b949350505050565b6113ad816110d4565b81146113b857600080fd5b50565b6000815190506113ca816113a4565b92915050565b6000602082840312156113e6576113e5610e51565b5b60006113f4848285016113bb565b91505092915050565b7f485443207472616e73666572206661696c656400000000000000000000000000600082015250565b600061143360138361104f565b915061143e826113fd565b602082019050919050565b6000602082019050818103600083015261146281611426565b9050919050565b600060408201905061147e600083018561101a565b61148b602083018461115b565b9392505050565b7f4e487b7100000000000000000000000000000000000000000000000000000000600052601160045260246000fd5b60006114cc82610e5b565b91507fffffffffffffffffffffffffffffffffffffffffffffffffffffffffffffffff82036114fe576114fd611492565b5b600182019050919050565b7f4e487b7100000000000000000000000000000000000000000000000000000000600052604160045260246000fd5b7f4e487b7100000000000000000000000000000000000000000000000000000000600052603260045260246000fd5b7f5072696365206d757374206265203e2030000000000000000000000000000000600082015250565b600061159d60118361104f565b91506115a882611567565b602082019050919050565b600060208201905081810360008301526115cc81611590565b9050919050565b6115dc81611149565b81146115e757600080fd5b50565b6000815190506115f9816115d3565b92915050565b6000819050919050565b611612816115ff565b811461161d57600080fd5b50565b60008151905061162f81611609565b92915050565b600080fd5b600080fd5b6116488261108a565b810181811067ffffffffffffffff8211171561166757611666611509565b5b80604052505050565b600061167a610e47565b9050611686828261163f565b919050565b600067ffffffffffffffff8211156116a6576116a5611509565b5b6116af8261108a565b9050602081019050919050565b60006116cf6116ca8461168b565b611670565b9050828152602081018484840111156116eb576116ea61163a565b5b6116f6848285611060565b509392505050565b600082601f83011261171357611712611635565b5b81516117238482602086016116bc565b91505092915050565b600067ffffffffffffffff82169050919050565b6117498161172c565b811461175457600080fd5b50565b60008151905061176681611740565b92915050565b600080fd5b600080fd5b60008151905061178581610e65565b92915050565b600060e082840312156117a1576117a061176c565b5b6117ab60e0611670565b905060006117bb84828501611776565b60008301525060206117cf84828501611776565b60208301525060406117e384828501611776565b60408301525060606117f784828501611776565b606083015250608061180b84828501611776565b60808301525060a061181f84828501611776565b60a08301525060c082015167ffffffffffffffff81111561184357611842611771565b5b61184f848285016116fe565b60c08301525092915050565b600080600080600080600060e0888a03121561187a57611879610e51565b5b60006118888a828b016115ea565b97505060206118998a828b01611620565b965050604088015167ffffffffffffffff8111156118ba576118b9610e56565b5b6118c68a828b016116fe565b955050606088015167ffffffffffffffff8111156118e7576118e6610e56565b5b6118f38a828b016116fe565b94505060806119048a828b01611757565b93505060a088015167ffffffffffffffff81111561192557611924610e56565b5b6119318a828b0161178b565b92505060c06119428a828b016113bb565b91505092959891949750929550565b7f44617461206e6f7420666f756e64000000000000000000000000000000000000600082015250565b6000611987600e8361104f565b915061199282611951565b602082019050919050565b600060208201905081810360008301526119b68161197a565b9050919050565b7f4e6f742064617461206f776e6572000000000000000000000000000000000000600082015250565b60006119f3600e8361104f565b91506119fe826119bd565b602082019050919050565b60006020820190508181036000830152611a22816119e6565b9050919050565b7f4c697374696e67206e6f7420666f756e64000000000000000000000000000000600082015250565b6000611a5f60118361104f565b9150611a6a82611a29565b602082019050919050565b60006020820190508181036000830152611a8e81611a52565b9050919050565b600080600080600080600080610100898b031215611ab657611ab5610e51565b5b6000611ac48b828c01611776565b9850506020611ad58b828c01611776565b9750506040611ae68b828c01611776565b9650506060611af78b828c01611776565b9550506080611b088b828c01611776565b94505060a0611b198b828c01611776565b93505060c089015167ffffffffffffffff811115611b3a57611b39610e56565b5b611b468b828c016116fe565b92505060e0611b578b828c016113bb565b915050929598509295989093965056fea26469706673582212201bdd06e89d04c5b14057cd4231ebfc24ec1921f43ade77ee12168f44efc8040564736f6c63430008140033",
  "linkReferences": {},
  "deployedLinkReferences": {}
}