{
  "_format": "hh-sol-artifact-1",
  "contractName": "Marketplace",
  "sourceName": "contracts/Marketplace.sol",
  "abi": [
    {
      "inputs": [
        {
          "internalType": "address",
          "name": "tokenAddress",
          "type": "address"
        },
        {
          "internalType": "address",
          "name": "registryAddress",
          "type": "address"
        }
      ],
      "stateMutability": "nonpayable",
      "type": "constructor"
    },
    {
      "anonymous": false,
      "inputs": [
        {
          "indexed": true,
          "internalType": "uint256",
          "name": "listingId",
          "type": "uint256"
        },
        {
          "indexed": true,
          "internalType": "uint256",
          "name": "dataId",
          "type": "uint256"
        },
        {
          "indexed": true,
          "internalType": "address",
          "name": "buyer",
          "type": "address"
        },
        {
          "indexed": false,
          "internalType": "uint256",
          "name": "price",
          "type": "uint256"
        }
      ],
      "name": "AccessPurchased",
      "type": "event"
    },
    {
      "anonymous": false,
      "inputs": [
        {
          "indexed": true,
          "internalType": "uint256",
          "name": "listingId",
          "type": "uint256"
        }
      ],
      "name": "ListingCancelled",
      "type": "event"
    },
    {
      "anonymous": false,
      "inputs": [
        {
          "indexed": true,
          "internalType": "uint256",
          "name": "listingId",
          "type": "uint256"
        },
        {
          "indexed": true,
          "internalType": "uint256",
          "name": "dataId",
          "type": "uint256"
        },
        {
          "indexed": true,
          "internalType": "address",
          "name": "seller",
          "type": "address"
        },
        {
          "indexed": false,
          "internalType": "uint256",
          "name": "price",
          "type": "uint256"
        }
      ],
      "name": "ListingCreated",
      "type": "event"
    },
    {
      "inputs": [
        {
          "internalType": "uint256",
          "name": "listingId",
          "type": "uint256"
        }
      ],
      "name": "buyAccess",
      "outputs": [],
      "stateMutability": "nonpayable",
      "type": "function"
    },
    {
      "inputs": [
        {
          "internalType": "uint256",
          "name": "listingId",
          "type": "uint256"
        }
      ],
      "name": "cancelListing",
      "outputs": [],
      "stateMutability": "nonpayable",
      "type": "function"
    },
    {
      "inputs": [
        {
          "internalType": "uint256",
          "name": "dataId",
          "type": "uint256"
        },
        {
          "internalType": "uint256",
          "name": "price",
          "type": "uint256"
        }
      ],
      "name": "createListing",
      "outputs": [
        {
          "internalType": "uint256",
          "name": "",
          "type": "uint256"
        }
      ],
      "stateMutability": "nonpayable",
      "type": "function"
    },
    {
      "inputs": [],
      "name": "htc",
      "outputs": [
        {
          "internalType": "contract IERC20",
          "name": "",
          "type": "address"
        }
      ],
      "stateMutability": "view",
      "type": "function"
    },
    {
      "inputs": [
        {
          "internalType": "uint256",
          "name": "",
          "type": "uint256"
        }
      ],
      "name": "listings",
      "outputs": [
        {
          "internalType": "uint256",
          "name": "id",
          "type": "uint256"
        },
        {
          "internalType": "uint256",
          "name": "dataId",
          "type": "uint256"
        },
        {
          "internalType": "address",
          "name": "seller",
          "type": "address"
        },
        {
          "internalType": "uint256",
          "name": "price",
          "type": "uint256"
        },
        {
          "internalType": "bool",
          "name": "active",
          "type": "bool"
        }
      ],
      "stateMutability": "view",
      "type": "function"
    },
    {
      "inputs": [],
      "name": "nextListingId",
      "outputs": [
        {
          "internalType": "uint256",
          "name": "",
          "type": "uint256"
        }
      ],
      "stateMutability": "view",
      "type": "function"
    },
    {
      "inputs": [],
      "name": "registry",
      "outputs": [
        {
          "internalType": "contract IDataRegistry",
          "name": "",
          "type": "address"
        }
      ],
      "stateMutability": "view",
      "type": "function"
    }
  ],
  "bytecode": "0x60c06040523480156200001157600080fd5b506040516200174e3803806200174e8339818101604052810190620000379190620001f5565b600073ffffffffffffffffffffffffffffffffffffffff168273ffffffffffffffffffffffffffffffffffffffff1603620000a9576040517f08c379a0000000000000000000000000000000000000000000000000000000008152600401620000a0906200029d565b60405180910390fd5b600073ffffffffffffffffffffffffffffffffffffffff168173ffffffffffffffffffffffffffffffffffffffff16036200011b576040517f08c379a000000000000000000000000000000000000000000000000000000000815260040162000112906200030f565b60405180910390fd5b8173ffffffffffffffffffffffffffffffffffffffff1660808173ffffffffffffffffffffffffffffffffffffffff16815250508073ffffffffffffffffffffffffffffffffffffffff1660a08173ffffffffffffffffffffffffffffffffffffffff1681525050505062000331565b600080fd5b600073ffffffffffffffffffffffffffffffffffffffff82169050919050565b6000620001bd8262000190565b9050919050565b620001cf81620001b0565b8114620001db57600080fd5b50565b600081519050620001ef81620001c4565b92915050565b600080604083850312156200020f576200020e6200018b565b5b60006200021f85828601620001de565b92505060206200023285828601620001de565b9150509250929050565b600082825260208201905092915050565b7f496e76616c696420746f6b656e00000000000000000000000000000000000000600082015250565b600062000285600d836200023c565b915062000292826200024d565b602082019050919050565b60006020820190508181036000830152620002b88162000276565b9050919050565b7f496e76616c696420726567697374727900000000000000000000000000000000600082015250565b6000620002f76010836200023c565b91506200030482620002bf565b602082019050919050565b600060208201905081810360008301526200032a81620002e8565b9050919050565b60805160a0516113e26200036c600039600081816105830152818161066e01526106d8015260008181610179015261047d01526113e26000f3fe608060405234801561001057600080fd5b506004361061007c5760003560e01c80637b1039991161005b5780637b103999146100d7578063a79123a9146100f5578063aaccf1ec14610125578063de74e57b146101435761007c565b8062e0392114610081578063305a67a81461009f57806350a1a264146100bb575b600080fd5b610089610177565b6040516100969190610a8e565b60405180910390f35b6100b960048036038101906100b49190610af3565b61019b565b005b6100d560048036038101906100d09190610af3565b6102e3565b005b6100df61066c565b6040516100ec9190610b41565b60405180910390f35b61010f600480360381019061010a9190610b5c565b610690565b60405161011c9190610bab565b60405180910390f35b61012d6109a6565b60405161013a9190610bab565b60405180910390f35b61015d60048036038101906101589190610af3565b6109ac565b60405161016e959493929190610c02565b60405180910390f35b7f000000000000000000000000000000000000000000000000000000000000000081565b60006001600083815260200190815260200160002090508060040160009054906101000a900460ff16610203576040517f08c379a00000000000000000000000000000000000000000000000000000000081526004016101fa90610cb2565b60405180910390fd5b3373ffffffffffffffffffffffffffffffffffffffff168160020160009054906101000a900473ffffffffffffffffffffffffffffffffffffffff1673ffffffffffffffffffffffffffffffffffffffff1614610295576040517f08c379a000000000000000000000000000000000000000000000000000000000815260040161028c90610d1e565b60405180910390fd5b60008160040160006101000a81548160ff021916908315150217905550817f411aee90354c51b1b04cd563fcab2617142a9d50da19232d888547c8a1b7fd8a60405160405180910390a25050565b60006001600083815260200190815260200160002090508060040160009054906101000a900460ff1661034b576040517f08c379a000000000000000000000000000000000000000000000000000000000815260040161034290610cb2565b60405180910390fd5b600073ffffffffffffffffffffffffffffffffffffffff168160020160009054906101000a900473ffffffffffffffffffffffffffffffffffffffff1673ffffffffffffffffffffffffffffffffffffffff16036103de576040517f08c379a00000000000000000000000000000000000000000000000000000000081526004016103d590610d8a565b60405180910390fd5b8060020160009054906101000a900473ffffffffffffffffffffffffffffffffffffffff1673ffffffffffffffffffffffffffffffffffffffff163373ffffffffffffffffffffffffffffffffffffffff1603610470576040517f08c379a000000000000000000000000000000000000000000000000000000000815260040161046790610df6565b60405180910390fd5b60008160030154905060007f000000000000000000000000000000000000000000000000000000000000000073ffffffffffffffffffffffffffffffffffffffff166323b872dd338560020160009054906101000a900473ffffffffffffffffffffffffffffffffffffffff16856040518463ffffffff1660e01b81526004016104fc93929190610e16565b6020604051808303816000875af115801561051b573d6000803e3d6000fd5b505050506040513d601f19601f8201168201806040525081019061053f9190610e79565b905080610581576040517f08c379a000000000000000000000000000000000000000000000000000000000815260040161057890610ef2565b60405180910390fd5b7f000000000000000000000000000000000000000000000000000000000000000073ffffffffffffffffffffffffffffffffffffffff166365dd152c8460010154336040518363ffffffff1660e01b81526004016105e0929190610f12565b600060405180830381600087803b1580156105fa57600080fd5b505af115801561060e573d6000803e3d6000fd5b505050503373ffffffffffffffffffffffffffffffffffffffff168360010154857fca8b919b7ad626f10fa4e659ed1e084213af2ffedc91544e6846d4c135a097758560405161065e9190610bab565b60405180910390a450505050565b7f000000000000000000000000000000000000000000000000000000000000000081565b60008082116106d4576040517f08c379a00000000000000000000000000000000000000000000000000000000081526004016106cb90610f87565b60405180910390fd5b60007f000000000000000000000000000000000000000000000000000000000000000073ffffffffffffffffffffffffffffffffffffffff166334461067856040518263ffffffff1660e01b815260040161072f9190610bab565b600060405180830381865afa15801561074c573d6000803e3d6000fd5b505050506040513d6000823e3d601f19601f8201168201806040525081019061077591906111aa565b505050509050600073ffffffffffffffffffffffffffffffffffffffff168173ffffffffffffffffffffffffffffffffffffffff16036107ea576040517f08c379a00000000000000000000000000000000000000000000000000000000081526004016107e1906112a9565b60405180910390fd5b3373ffffffffffffffffffffffffffffffffffffffff168173ffffffffffffffffffffffffffffffffffffffff1614610858576040517f08c379a000000000000000000000000000000000000000000000000000000000815260040161084f90611315565b60405180910390fd5b6000806000815461086890611364565b91905081905590506040518060a001604052808281526020018681526020013373ffffffffffffffffffffffffffffffffffffffff1681526020018581526020016001151581525060016000838152602001908152602001600020600082015181600001556020820151816001015560408201518160020160006101000a81548173ffffffffffffffffffffffffffffffffffffffff021916908373ffffffffffffffffffffffffffffffffffffffff1602179055506060820151816003015560808201518160040160006101000a81548160ff0219169083151502179055509050503373ffffffffffffffffffffffffffffffffffffffff1685827f8093adc67e6531e4dcb9f96fe66947096b91ad10573e8136f8ef1a1cebe2fad6876040516109939190610bab565b60405180910390a4809250505092915050565b60005481565b60016020528060005260406000206000915090508060000154908060010154908060020160009054906101000a900473ffffffffffffffffffffffffffffffffffffffff16908060030154908060040160009054906101000a900460ff16905085565b600073ffffffffffffffffffffffffffffffffffffffff82169050919050565b6000819050919050565b6000610a54610a4f610a4a84610a0f565b610a2f565b610a0f565b9050919050565b6000610a6682610a39565b9050919050565b6000610a7882610a5b565b9050919050565b610a8881610a6d565b82525050565b6000602082019050610aa36000830184610a7f565b92915050565b6000604051905090565b600080fd5b600080fd5b6000819050919050565b610ad081610abd565b8114610adb57600080fd5b50565b600081359050610aed81610ac7565b92915050565b600060208284031215610b0957610b08610ab3565b5b6000610b1784828501610ade565b91505092915050565b6000610b2b82610a5b565b9050919050565b610b3b81610b20565b82525050565b6000602082019050610b566000830184610b32565b92915050565b60008060408385031215610b7357610b72610ab3565b5b6000610b8185828601610ade565b9250506020610b9285828601610ade565b9150509250929050565b610ba581610abd565b82525050565b6000602082019050610bc06000830184610b9c565b92915050565b6000610bd182610a0f565b9050919050565b610be181610bc6565b82525050565b60008115159050919050565b610bfc81610be7565b82525050565b600060a082019050610c176000830188610b9c565b610c246020830187610b9c565b610c316040830186610bd8565b610c3e6060830185610b9c565b610c4b6080830184610bf3565b9695505050505050565b600082825260208201905092915050565b7f4e6f742061637469766500000000000000000000000000000000000000000000600082015250565b6000610c9c600a83610c55565b9150610ca782610c66565b602082019050919050565b60006020820190508181036000830152610ccb81610c8f565b9050919050565b7f4e6f742073656c6c657200000000000000000000000000000000000000000000600082015250565b6000610d08600a83610c55565b9150610d1382610cd2565b602082019050919050565b60006020820190508181036000830152610d3781610cfb565b9050919050565b7f4c697374696e67206d697373696e670000000000000000000000000000000000600082015250565b6000610d74600f83610c55565b9150610d7f82610d3e565b602082019050919050565b60006020820190508181036000830152610da381610d67565b9050919050565b7f53656c6c65722063616e6e6f7420627579000000000000000000000000000000600082015250565b6000610de0601183610c55565b9150610deb82610daa565b602082019050919050565b60006020820190508181036000830152610e0f81610dd3565b9050919050565b6000606082019050610e2b6000830186610bd8565b610e386020830185610bd8565b610e456040830184610b9c565b949350505050565b610e5681610be7565b8114610e6157600080fd5b50565b600081519050610e7381610e4d565b92915050565b600060208284031215610e8f57610e8e610ab3565b5b6000610e9d84828501610e64565b91505092915050565b7f485443207472616e73666572206661696c656400000000000000000000000000600082015250565b6000610edc601383610c55565b9150610ee782610ea6565b602082019050919050565b60006020820190508181036000830152610f0b81610ecf565b9050919050565b6000604082019050610f276000830185610b9c565b610f346020830184610bd8565b9392505050565b7f5072696365206d757374206265203e2030000000000000000000000000000000600082015250565b6000610f71601183610c55565b9150610f7c82610f3b565b602082019050919050565b60006020820190508181036000830152610fa081610f64565b9050919050565b610fb081610bc6565b8114610fbb57600080fd5b50565b600081519050610fcd81610fa7565b92915050565b6000819050919050565b610fe681610fd3565b8114610ff157600080fd5b50565b60008151905061100381610fdd565b92915050565b600080fd5b600080fd5b6000601f19601f8301169050919050565b7f4e487b7100000000000000000000000000000000000000000000000000000000600052604160045260246000fd5b61105c82611013565b810181811067ffffffffffffffff8211171561107b5761107a611024565b5b80604052505050565b600061108e610aa9565b905061109a8282611053565b919050565b600067ffffffffffffffff8211156110ba576110b9611024565b5b6110c382611013565b9050602081019050919050565b60005b838110156110ee5780820151818401526020810190506110d3565b60008484015250505050565b600061110d6111088461109f565b611084565b9050828152602081018484840111156111295761112861100e565b5b6111348482856110d0565b509392505050565b600082601f83011261115157611150611009565b5b81516111618482602086016110fa565b91505092915050565b600067ffffffffffffffff82169050919050565b6111878161116a565b811461119257600080fd5b50565b6000815190506111a48161117e565b92915050565b600080600080600060a086880312156111c6576111c5610ab3565b5b60006111d488828901610fbe565b95505060206111e588828901610ff4565b945050604086015167ffffffffffffffff81111561120657611205610ab8565b5b6112128882890161113c565b935050606086015167ffffffffffffffff81111561123357611232610ab8565b5b61123f8882890161113c565b925050608061125088828901611195565b9150509295509295909350565b7f44617461206e6f7420666f756e64000000000000000000000000000000000000600082015250565b6000611293600e83610c55565b915061129e8261125d565b602082019050919050565b600060208201905081810360008301526112c281611286565b9050919050565b7f4e6f742064617461206f776e6572000000000000000000000000000000000000600082015250565b60006112ff600e83610c55565b915061130a826112c9565b602082019050919050565b6000602082019050818103600083015261132e816112f2565b9050919050565b7f4e487b7100000000000000000000000000000000000000000000000000000000600052601160045260246000fd5b600061136f82610abd565b91507fffffffffffffffffffffffffffffffffffffffffffffffffffffffffffffffff82036113a1576113a0611335565b5b60018201905091905056fea26469706673582212205d051963d5df744986b6cdbd3d20e98fc0aaa4afbccd4f3b4932d92f385e401264736f6c63430008140033",
  "linkReferences": {},
  "deployedLinkReferences": {}
}