{
  "_format": "hh-sol-artifact-1",
  "contractName": "MoveToEarn",
  "sourceName": "contracts/MoveToEarn.sol",
  "abi": [
    {
      "inputs": [
        {
          "internalType": "address",
          "name": "tokenAddress",
          "type": "address"
        },
        {
          "internalType": "address",
          "name": "registryAddress",
          "type": "address"
        }
      ],
      "stateMutability": "nonpayable",
      "type": "constructor"
    },
    {
      "inputs": [
        {
          "internalType": "address",
          "name": "owner",
          "type": "address"
        }
      ],
      "name": "OwnableInvalidOwner",
      "type": "error"
    },
    {
      "inputs": [
        {
          "internalType": "address",
          "name": "account",
          "type": "address"
        }
      ],
      "name": "OwnableUnauthorizedAccount",
      "type": "error"
    },
    {
      "anonymous": false,
      "inputs": [
        {
          "indexed": true,
          "internalType": "address",
          "name": "previousOwner",
          "type": "address"
        },
        {
          "indexed": true,
          "internalType": "address",
          "name": "newOwner",
          "type": "address"
        }
      ],
      "name": "OwnershipTransferred",
      "type": "event"
    },
    {
      "anonymous": false,
      "inputs": [
        {
          "indexed": true,
          "internalType": "address",
          "name": "user",
          "type": "address"
        },
        {
          "indexed": true,
          "internalType": "uint256",
          "name": "dataId",
          "type": "uint256"
        },
        {
          "indexed": false,
          "internalType": "uint256",
          "name": "steps",
          "type": "uint256"
        },
        {
          "indexed": false,
          "internalType": "uint256",
          "name": "reward",
          "type": "uint256"
        },
        {
          "indexed": false,
          "internalType": "uint256",
          "name": "timestamp",
          "type": "uint256"
        }
      ],
      "name": "RewardClaimed",
      "type": "event"
    },
    {
      "anonymous": false,
      "inputs": [
        {
          "indexed": false,
          "internalType": "uint256",
          "name": "minSteps",
          "type": "uint256"
        },
        {
          "indexed": false,
          "internalType": "uint256",
          "name": "maxSteps",
          "type": "uint256"
        },
        {
          "indexed": false,
          "internalType": "uint256",
          "name": "cooldown",
          "type": "uint256"
        }
      ],
      "name": "RewardConfigUpdated",
      "type": "event"
    },
    {
      "inputs": [],
      "name": "DAILY_COOLDOWN",
      "outputs": [
        {
          "internalType": "uint256",
          "name": "",
          "type": "uint256"
        }
      ],
      "stateMutability": "view",
      "type": "function"
    },
    {
      "inputs": [],
      "name": "MAX_STEPS",
      "outputs": [
        {
          "internalType": "uint256",
          "name": "",
          "type": "uint256"
        }
      ],
      "stateMutability": "view",
      "type": "function"
    },
    {
      "inputs": [],
      "name": "MIN_STEPS",
      "outputs": [
        {
          "internalType": "uint256",
          "name": "",
          "type": "uint256"
        }
      ],
      "stateMutability": "view",
      "type": "function"
    },
    {
      "inputs": [],
      "name": "REWARD_PER_THOUSAND",
      "outputs": [
        {
          "internalType": "uint256",
          "name": "",
          "type": "uint256"
        }
      ],
      "stateMutability": "view",
      "type": "function"
    },
    {
      "inputs": [],
      "name": "STEPS_PER_REWARD",
      "outputs": [
        {
          "internalType": "uint256",
          "name": "",
          "type": "uint256"
        }
      ],
      "stateMutability": "view",
      "type": "function"
    },
    {
      "inputs": [
        {
          "internalType": "uint256",
          "name": "steps",
          "type": "uint256"
        }
      ],
      "name": "calculateReward",
      "outputs": [
        {
          "internalType": "uint256",
          "name": "",
          "type": "uint256"
        }
      ],
      "stateMutability": "pure",
      "type": "function"
    },
    {
      "inputs": [
        {
          "internalType": "address",
          "name": "user",
          "type": "address"
        }
      ],
      "name": "canClaimReward",
      "outputs": [
        {
          "internalType": "bool",
          "name": "canClaim",
          "type": "bool"
        },
        {
          "internalType": "string",
          "name": "reason",
          "type": "string"
        }
      ],
      "stateMutability": "view",
      "type": "function"
    },
    {
      "inputs": [
        {
          "internalType": "uint256",
          "name": "dataId",
          "type": "uint256"
        }
      ],
      "name": "claimReward",
      "outputs": [],
      "stateMutability": "nonpayable",
      "type": "function"
    },
    {
      "inputs": [],
      "name": "dataRegistry",
      "outputs": [
        {
          "internalType": "contract IDataRegistry",
          "name": "",
          "type": "address"
        }
      ],
      "stateMutability": "view",
      "type": "function"
    },
    {
      "inputs": [
        {
          "internalType": "uint256",
          "name": "amount",
          "type": "uint256"
        }
      ],
      "name": "fundContract",
      "outputs": [],
      "stateMutability": "nonpayable",
      "type": "function"
    },
    {
      "inputs": [],
      "name": "getContractBalance",
      "outputs": [
        {
          "internalType": "uint256",
          "name": "",
          "type": "uint256"
        }
      ],
      "stateMutability": "view",
      "type": "function"
    },
    {
      "inputs": [
        {
          "internalType": "address",
          "name": "user",
          "type": "address"
        }
      ],
      "name": "getUserStats",
      "outputs": [
        {
          "internalType": "uint256",
          "name": "totalSteps",
          "type": "uint256"
        },
        {
          "internalType": "uint256",
          "name": "totalRewards",
          "type": "uint256"
        },
        {
          "internalType": "uint256",
          "name": "lastClaimTime",
          "type": "uint256"
        },
        {
          "internalType": "uint256",
          "name": "claimCount",
          "type": "uint256"
        },
        {
          "internalType": "uint256",
          "name": "nextClaimTime",
          "type": "uint256"
        }
      ],
      "stateMutability": "view",
      "type": "function"
    },
    {
      "inputs": [
        {
          "internalType": "address",
          "name": "",
          "type": "address"
        },
        {
          "internalType": "uint256",
          "name": "",
          "type": "uint256"
        }
      ],
      "name": "hasClaimedDataId",
      "outputs": [
        {
          "internalType": "bool",
          "name": "",
          "type": "bool"
        }
      ],
      "stateMutability": "view",
      "type": "function"
    },
    {
      "inputs": [],
      "name": "htcToken",
      "outputs": [
        {
          "internalType": "contract IERC20",
          "name": "",
          "type": "address"
        }
      ],
      "stateMutability": "view",
      "type": "function"
    },
    {
      "inputs": [],
      "name": "owner",
      "outputs": [
        {
          "internalType": "address",
          "name": "",
          "type": "address"
        }
      ],
      "stateMutability": "view",
      "type": "function"
    },
    {
      "inputs": [],
      "name": "renounceOwnership",
      "outputs": [],
      "stateMutability": "nonpayable",
      "type": "function"
    },
    {
      "inputs": [
        {
          "internalType": "address",
          "name": "newOwner",
          "type": "address"
        }
      ],
      "name": "transferOwnership",
      "outputs": [],
      "stateMutability": "nonpayable",
      "type": "function"
    },
    {
      "inputs": [
        {
          "internalType": "address",
          "name": "",
          "type": "address"
        }
      ],
      "name": "userRewards",
      "outputs": [
        {
          "internalType": "uint256",
          "name": "totalSteps",
          "type": "uint256"
        },
        {
          "internalType": "uint256",
          "name": "totalRewards",
          "type": "uint256"
        },
        {
          "internalType": "uint256",
          "name": "lastClaimTime",
          "type": "uint256"
        },
        {
          "internalType": "uint256",
          "name": "claimCount",
          "type": "uint256"
        }
      ],
      "stateMutability": "view",
      "type": "function"
    },
    {
      "inputs": [
        {
          "internalType": "uint256",
          "name": "amount",
          "type": "uint256"
        }
      ],
      "name": "withdrawTokens",
      "outputs": [],
      "stateMutability": "nonpayable",
      "type": "function"
    }
  ],
  "bytecode": "0x60c06040523480156200001157600080fd5b506040516200286a3803806200286a833981810160405281019062000037919062000341565b33600073ffffffffffffffffffffffffffffffffffffffff168173ffffffffffffffffffffffffffffffffffffffff1603620000ad5760006040517f1e4fbdf7000000000000000000000000000000000000000000000000000000008152600401620000a4919062000399565b60405180910390fd5b620000be816200021360201b60201c565b50600073ffffffffffffffffffffffffffffffffffffffff168273ffffffffffffffffffffffffffffffffffffffff160362000131576040517f08c379a0000000000000000000000000000000000000000000000000000000008152600401620001289062000417565b60405180910390fd5b600073ffffffffffffffffffffffffffffffffffffffff168173ffffffffffffffffffffffffffffffffffffffff1603620001a3576040517f08c379a00000000000000000000000000000000000000000000000000000000081526004016200019a9062000489565b60405180910390fd5b8173ffffffffffffffffffffffffffffffffffffffff1660808173ffffffffffffffffffffffffffffffffffffffff16815250508073ffffffffffffffffffffffffffffffffffffffff1660a08173ffffffffffffffffffffffffffffffffffffffff16815250505050620004ab565b60008060009054906101000a900473ffffffffffffffffffffffffffffffffffffffff169050816000806101000a81548173ffffffffffffffffffffffffffffffffffffffff021916908373ffffffffffffffffffffffffffffffffffffffff1602179055508173ffffffffffffffffffffffffffffffffffffffff168173ffffffffffffffffffffffffffffffffffffffff167f8be0079c531659141344cd1fd0a4f28419497f9722a3daafe3b4186f6b6457e060405160405180910390a35050565b600080fd5b600073ffffffffffffffffffffffffffffffffffffffff82169050919050565b60006200030982620002dc565b9050919050565b6200031b81620002fc565b81146200032757600080fd5b50565b6000815190506200033b8162000310565b92915050565b600080604083850312156200035b576200035a620002d7565b5b60006200036b858286016200032a565b92505060206200037e858286016200032a565b9150509250929050565b6200039381620002fc565b82525050565b6000602082019050620003b0600083018462000388565b92915050565b600082825260208201905092915050565b7f496e76616c696420746f6b656e20616464726573730000000000000000000000600082015250565b6000620003ff601583620003b6565b91506200040c82620003c7565b602082019050919050565b600060208201905081810360008301526200043281620003f0565b9050919050565b7f496e76616c696420726567697374727920616464726573730000000000000000600082015250565b600062000471601883620003b6565b91506200047e8262000439565b602082019050919050565b60006020820190508181036000830152620004a48162000462565b9050919050565b60805160a05161236862000502600039600081816108c10152818161091a01526109c601526000818161052201528181610616015281816107b6015281816108f101528181610d410152610ee401526123686000f3fe608060405234801561001057600080fd5b50600436106101205760003560e01c80638da5cb5b116100ad578063ae169a5011610071578063ae169a5014610301578063d2d7231f1461031d578063e6357b931461034d578063f2fde38b1461036b578063f367d5cc1461038757610120565b80638da5cb5b146102595780639a35485814610277578063a39c1d6b146102a7578063a6c3b47f146102c5578063abadb62b146102e357610120565b8063336272a3116100f4578063336272a3146101c35780633519a2f8146101e15780634e43603a146101fd5780636f9fb98a14610231578063715018a61461024f57610120565b806245cdc314610125578063046335d0146101435780630660f1e814610174578063315a095d146101a7575b600080fd5b61012d6103a5565b60405161013a91906113aa565b60405180910390f35b61015d60048036038101906101589190611437565b6103ab565b60405161016b92919061150f565b60405180910390f35b61018e60048036038101906101899190611437565b6104e6565b60405161019e949392919061153f565b60405180910390f35b6101c160048036038101906101bc91906115b0565b610516565b005b6101cb610604565b6040516101d891906113aa565b60405180910390f35b6101fb60048036038101906101f691906115b0565b61060a565b005b61021760048036038101906102129190611437565b6106fa565b6040516102289594939291906115dd565b60405180910390f35b6102396107b2565b60405161024691906113aa565b60405180910390f35b610257610853565b005b610261610867565b60405161026e919061163f565b60405180910390f35b610291600480360381019061028c919061165a565b610890565b60405161029e919061169a565b60405180910390f35b6102af6108bf565b6040516102bc9190611714565b60405180910390f35b6102cd6108e3565b6040516102da91906113aa565b60405180910390f35b6102eb6108ef565b6040516102f89190611750565b60405180910390f35b61031b600480360381019061031691906115b0565b610913565b005b610337600480360381019061033291906115b0565b611021565b60405161034491906113aa565b60405180910390f35b61035561104b565b60405161036291906113aa565b60405180910390f35b61038560048036038101906103809190611437565b611052565b005b61038f6110d8565b60405161039c91906113aa565b60405180910390f35b610bb881565b600060606000600160008573ffffffffffffffffffffffffffffffffffffffff1673ffffffffffffffffffffffffffffffffffffffff1681526020019081526020016000206040518060800160405290816000820154815260200160018201548152602001600282015481526020016003820154815250509050620151808160400151610438919061179a565b4210156104a357600042620151808360400151610455919061179a565b61045f91906117ce565b90506000610479610e10836104749190611831565b6110de565b6040516020016104899190611936565b6040516020818303038152906040529350935050506104e1565b60016040518060400160405280600e81526020017f526561647920746f20636c61696d00000000000000000000000000000000000081525092509250505b915091565b60016020528060005260406000206000915090508060000154908060010154908060020154908060030154905084565b61051e61123e565b60007f000000000000000000000000000000000000000000000000000000000000000073ffffffffffffffffffffffffffffffffffffffff1663a9059cbb33846040518363ffffffff1660e01b815260040161057b929190611963565b6020604051808303816000875af115801561059a573d6000803e3d6000fd5b505050506040513d601f19601f820116820180604052508101906105be91906119b8565b905080610600576040517f08c379a00000000000000000000000000000000000000000000000000000000081526004016105f790611a31565b60405180910390fd5b5050565b6103e881565b61061261123e565b60007f000000000000000000000000000000000000000000000000000000000000000073ffffffffffffffffffffffffffffffffffffffff166323b872dd3330856040518463ffffffff1660e01b815260040161067193929190611a51565b6020604051808303816000875af1158015610690573d6000803e3d6000fd5b505050506040513d601f19601f820116820180604052508101906106b491906119b8565b9050806106f6576040517f08c379a00000000000000000000000000000000000000000000000000000000081526004016106ed90611a31565b60405180910390fd5b5050565b600080600080600080600160008873ffffffffffffffffffffffffffffffffffffffff1673ffffffffffffffffffffffffffffffffffffffff1681526020019081526020016000206040518060800160405290816000820154815260200160018201548152602001600282015481526020016003820154815250509050806000015181602001518260400151836060015162015180856040015161079e919061179a565b955095509550955095505091939590929450565b60007f000000000000000000000000000000000000000000000000000000000000000073ffffffffffffffffffffffffffffffffffffffff166370a08231306040518263ffffffff1660e01b815260040161080d919061163f565b602060405180830381865afa15801561082a573d6000803e3d6000fd5b505050506040513d601f19601f8201168201806040525081019061084e9190611a9d565b905090565b61085b61123e565b61086560006112c5565b565b60008060009054906101000a900473ffffffffffffffffffffffffffffffffffffffff16905090565b60026020528160005260406000206020528060005260406000206000915091509054906101000a900460ff1681565b7f000000000000000000000000000000000000000000000000000000000000000081565b678ac7230489e8000081565b7f000000000000000000000000000000000000000000000000000000000000000081565b60008060007f000000000000000000000000000000000000000000000000000000000000000073ffffffffffffffffffffffffffffffffffffffff16636a7aaf94856040518263ffffffff1660e01b815260040161097191906113aa565b600060405180830381865afa15801561098e573d6000803e3d6000fd5b505050506040513d6000823e3d601f19601f820116820180604052508101906109b79190611bf0565b975097505050505050925060007f000000000000000000000000000000000000000000000000000000000000000073ffffffffffffffffffffffffffffffffffffffff166334461067866040518263ffffffff1660e01b8152600401610a1d91906113aa565b600060405180830381865afa158015610a3a573d6000803e3d6000fd5b505050506040513d6000823e3d601f19601f82011682018060405250810190610a639190611e27565b50505050505090503373ffffffffffffffffffffffffffffffffffffffff168173ffffffffffffffffffffffffffffffffffffffff1614610ad9576040517f08c379a0000000000000000000000000000000000000000000000000000000008152600401610ad090611f69565b60405180910390fd5b81610b19576040517f08c379a0000000000000000000000000000000000000000000000000000000008152600401610b1090611fd5565b60405180910390fd5b6040518060400160405280600581526020017f6461696c7900000000000000000000000000000000000000000000000000000081525080519060200120838051906020012014610b9e576040517f08c379a0000000000000000000000000000000000000000000000000000000008152600401610b9590612041565b60405180910390fd5b600260003373ffffffffffffffffffffffffffffffffffffffff1673ffffffffffffffffffffffffffffffffffffffff168152602001908152602001600020600086815260200190815260200160002060009054906101000a900460ff1615610c3c576040517f08c379a0000000000000000000000000000000000000000000000000000000008152600401610c33906120ad565b60405180910390fd5b6000600160003373ffffffffffffffffffffffffffffffffffffffff1673ffffffffffffffffffffffffffffffffffffffff1681526020019081526020016000209050620151808160020154610c92919061179a565b421015610cd4576040517f08c379a0000000000000000000000000000000000000000000000000000000008152600401610ccb90612119565b60405180910390fd5b610bb8851015610d19576040517f08c379a0000000000000000000000000000000000000000000000000000000008152600401610d1090612185565b60405180910390fd5b6000614e208611610d2a5785610d2e565b614e205b90506000610d3b82611021565b905060007f000000000000000000000000000000000000000000000000000000000000000073ffffffffffffffffffffffffffffffffffffffff166370a08231306040518263ffffffff1660e01b8152600401610d98919061163f565b602060405180830381865afa158015610db5573d6000803e3d6000fd5b505050506040513d601f19601f82011682018060405250810190610dd99190611a9d565b905081811015610e1e576040517f08c379a0000000000000000000000000000000000000000000000000000000008152600401610e15906121f1565b60405180910390fd5b82846000016000828254610e32919061179a565b9250508190555081846001016000828254610e4d919061179a565b92505081905550428460020181905550836003016000815480929190610e7290612211565b91905055506001600260003373ffffffffffffffffffffffffffffffffffffffff1673ffffffffffffffffffffffffffffffffffffffff16815260200190815260200160002060008b815260200190815260200160002060006101000a81548160ff02191690831515021790555060007f000000000000000000000000000000000000000000000000000000000000000073ffffffffffffffffffffffffffffffffffffffff1663a9059cbb33856040518363ffffffff1660e01b8152600401610f3d929190611963565b6020604051808303816000875af1158015610f5c573d6000803e3d6000fd5b505050506040513d601f19601f82011682018060405250810190610f8091906119b8565b905080610fc2576040517f08c379a0000000000000000000000000000000000000000000000000000000008152600401610fb990611a31565b60405180910390fd5b893373ffffffffffffffffffffffffffffffffffffffff167f9e80c048bc588b388047ffc6e8153e7c11aa34312de7ed62e1858ff3a44ddce886864260405161100d93929190612259565b60405180910390a350505050505050505050565b6000678ac7230489e800006103e88361103a9190611831565b6110449190612290565b9050919050565b6201518081565b61105a61123e565b600073ffffffffffffffffffffffffffffffffffffffff168173ffffffffffffffffffffffffffffffffffffffff16036110cc5760006040517f1e4fbdf70000000000000000000000000000000000000000000000000000000081526004016110c3919061163f565b60405180910390fd5b6110d5816112c5565b50565b614e2081565b606060008203611125576040518060400160405280600181526020017f30000000000000000000000000000000000000000000000000000000000000008152509050611239565b600082905060005b6000821461115757808061114090612211565b915050600a826111509190611831565b915061112d565b60008167ffffffffffffffff81111561117357611172611ad4565b5b6040519080825280601f01601f1916602001820160405280156111a55781602001600182028036833780820191505090505b5090505b60008514611232576001826111be91906117ce565b9150600a856111cd91906122d2565b60306111d9919061179a565b60f81b8183815181106111ef576111ee612303565b5b60200101907effffffffffffffffffffffffffffffffffffffffffffffffffffffffffffff1916908160001a905350600a8561122b9190611831565b94506111a9565b8093505050505b919050565b611246611389565b73ffffffffffffffffffffffffffffffffffffffff16611264610867565b73ffffffffffffffffffffffffffffffffffffffff16146112c357611287611389565b6040517f118cdaa70000000000000000000000000000000000000000000000000000000081526004016112ba919061163f565b60405180910390fd5b565b60008060009054906101000a900473ffffffffffffffffffffffffffffffffffffffff169050816000806101000a81548173ffffffffffffffffffffffffffffffffffffffff021916908373ffffffffffffffffffffffffffffffffffffffff1602179055508173ffffffffffffffffffffffffffffffffffffffff168173ffffffffffffffffffffffffffffffffffffffff167f8be0079c531659141344cd1fd0a4f28419497f9722a3daafe3b4186f6b6457e060405160405180910390a35050565b600033905090565b6000819050919050565b6113a481611391565b82525050565b60006020820190506113bf600083018461139b565b92915050565b6000604051905090565b600080fd5b600080fd5b600073ffffffffffffffffffffffffffffffffffffffff82169050919050565b6000611404826113d9565b9050919050565b611414816113f9565b811461141f57600080fd5b50565b6000813590506114318161140b565b92915050565b60006020828403121561144d5761144c6113cf565b5b600061145b84828501611422565b91505092915050565b60008115159050919050565b61147981611464565b82525050565b600081519050919050565b600082825260208201905092915050565b60005b838110156114b957808201518184015260208101905061149e565b60008484015250505050565b6000601f19601f8301169050919050565b60006114e18261147f565b6114eb818561148a565b93506114fb81856020860161149b565b611504816114c5565b840191505092915050565b60006040820190506115246000830185611470565b818103602083015261153681846114d6565b90509392505050565b6000608082019050611554600083018761139b565b611561602083018661139b565b61156e604083018561139b565b61157b606083018461139b565b95945050505050565b61158d81611391565b811461159857600080fd5b50565b6000813590506115aa81611584565b92915050565b6000602082840312156115c6576115c56113cf565b5b60006115d48482850161159b565b91505092915050565b600060a0820190506115f2600083018861139b565b6115ff602083018761139b565b61160c604083018661139b565b611619606083018561139b565b611626608083018461139b565b9695505050505050565b611639816113f9565b82525050565b60006020820190506116546000830184611630565b92915050565b60008060408385031215611671576116706113cf565b5b600061167f85828601611422565b92505060206116908582860161159b565b9150509250929050565b60006020820190506116af6000830184611470565b92915050565b6000819050919050565b60006116da6116d56116d0846113d9565b6116b5565b6113d9565b9050919050565b60006116ec826116bf565b9050919050565b60006116fe826116e1565b9050919050565b61170e816116f3565b82525050565b60006020820190506117296000830184611705565b92915050565b600061173a826116e1565b9050919050565b61174a8161172f565b82525050565b60006020820190506117656000830184611741565b92915050565b7f4e487b7100000000000000000000000000000000000000000000000000000000600052601160045260246000fd5b60006117a582611391565b91506117b083611391565b92508282019050808211156117c8576117c761176b565b5b92915050565b60006117d982611391565b91506117e483611391565b92508282039050818111156117fc576117fb61176b565b5b92915050565b7f4e487b7100000000000000000000000000000000000000000000000000000000600052601260045260246000fd5b600061183c82611391565b915061184783611391565b92508261185757611856611802565b5b828204905092915050565b600081905092915050565b7f436f6f6c646f776e3a2000000000000000000000000000000000000000000000600082015250565b60006118a3600a83611862565b91506118ae8261186d565b600a82019050919050565b60006118c48261147f565b6118ce8185611862565b93506118de81856020860161149b565b80840191505092915050565b7f20686f757273206c656674000000000000000000000000000000000000000000600082015250565b6000611920600b83611862565b915061192b826118ea565b600b82019050919050565b600061194182611896565b915061194d82846118b9565b915061195882611913565b915081905092915050565b60006040820190506119786000830185611630565b611985602083018461139b565b9392505050565b61199581611464565b81146119a057600080fd5b50565b6000815190506119b28161198c565b92915050565b6000602082840312156119ce576119cd6113cf565b5b60006119dc848285016119a3565b91505092915050565b7f5472616e73666572206661696c65640000000000000000000000000000000000600082015250565b6000611a1b600f8361148a565b9150611a26826119e5565b602082019050919050565b60006020820190508181036000830152611a4a81611a0e565b9050919050565b6000606082019050611a666000830186611630565b611a736020830185611630565b611a80604083018461139b565b949350505050565b600081519050611a9781611584565b92915050565b600060208284031215611ab357611ab26113cf565b5b6000611ac184828501611a88565b91505092915050565b600080fd5b600080fd5b7f4e487b7100000000000000000000000000000000000000000000000000000000600052604160045260246000fd5b611b0c826114c5565b810181811067ffffffffffffffff82111715611b2b57611b2a611ad4565b5b80604052505050565b6000611b3e6113c5565b9050611b4a8282611b03565b919050565b600067ffffffffffffffff821115611b6a57611b69611ad4565b5b611b73826114c5565b9050602081019050919050565b6000611b93611b8e84611b4f565b611b34565b905082815260208101848484011115611baf57611bae611acf565b5b611bba84828561149b565b509392505050565b600082601f830112611bd757611bd6611aca565b5b8151611be7848260208601611b80565b91505092915050565b600080600080600080600080610100898b031215611c1157611c106113cf565b5b6000611c1f8b828c01611a88565b9850506020611c308b828c01611a88565b9750506040611c418b828c01611a88565b9650506060611c528b828c01611a88565b9550506080611c638b828c01611a88565b94505060a0611c748b828c01611a88565b93505060c089015167ffffffffffffffff811115611c9557611c946113d4565b5b611ca18b828c01611bc2565b92505060e0611cb28b828c016119a3565b9150509295985092959890939650565b600081519050611cd18161140b565b92915050565b6000819050919050565b611cea81611cd7565b8114611cf557600080fd5b50565b600081519050611d0781611ce1565b92915050565b600067ffffffffffffffff82169050919050565b611d2a81611d0d565b8114611d3557600080fd5b50565b600081519050611d4781611d21565b92915050565b600080fd5b600080fd5b600060e08284031215611d6d57611d6c611d4d565b5b611d7760e0611b34565b90506000611d8784828501611a88565b6000830152506020611d9b84828501611a88565b6020830152506040611daf84828501611a88565b6040830152506060611dc384828501611a88565b6060830152506080611dd784828501611a88565b60808301525060a0611deb84828501611a88565b60a08301525060c082015167ffffffffffffffff811115611e0f57611e0e611d52565b5b611e1b84828501611bc2565b60c08301525092915050565b600080600080600080600060e0888a031215611e4657611e456113cf565b5b6000611e548a828b01611cc2565b9750506020611e658a828b01611cf8565b965050604088015167ffffffffffffffff811115611e8657611e856113d4565b5b611e928a828b01611bc2565b955050606088015167ffffffffffffffff811115611eb357611eb26113d4565b5b611ebf8a828b01611bc2565b9450506080611ed08a828b01611d38565b93505060a088015167ffffffffffffffff811115611ef157611ef06113d4565b5b611efd8a828b01611d57565b92505060c0611f0e8a828b016119a3565b91505092959891949750929550565b7f4e6f742064617461206f776e6572000000000000000000000000000000000000600082015250565b6000611f53600e8361148a565b9150611f5e82611f1d565b602082019050919050565b60006020820190508181036000830152611f8281611f46565b9050919050565b7f4e6f206865616c7468206d657472696373000000000000000000000000000000600082015250565b6000611fbf60118361148a565b9150611fca82611f89565b602082019050919050565b60006020820190508181036000830152611fee81611fb2565b9050919050565b7f4f6e6c79206461696c79206461746120656c696769626c650000000000000000600082015250565b600061202b60188361148a565b915061203682611ff5565b602082019050919050565b6000602082019050818103600083015261205a8161201e565b9050919050565b7f416c726561647920636c61696d65640000000000000000000000000000000000600082015250565b6000612097600f8361148a565b91506120a282612061565b602082019050919050565b600060208201905081810360008301526120c68161208a565b9050919050565b7f436f6f6c646f776e206e6f742066696e69736865640000000000000000000000600082015250565b600061210360158361148a565b915061210e826120cd565b602082019050919050565b60006020820190508181036000830152612132816120f6565b9050919050565b7f53746570732062656c6f77206d696e696d756d00000000000000000000000000600082015250565b600061216f60138361148a565b915061217a82612139565b602082019050919050565b6000602082019050818103600083015261219e81612162565b9050919050565b7f496e73756666696369656e7420636f6e74726163742062616c616e6365000000600082015250565b60006121db601d8361148a565b91506121e6826121a5565b602082019050919050565b6000602082019050818103600083015261220a816121ce565b9050919050565b600061221c82611391565b91507fffffffffffffffffffffffffffffffffffffffffffffffffffffffffffffffff820361224e5761224d61176b565b5b600182019050919050565b600060608201905061226e600083018661139b565b61227b602083018561139b565b612288604083018461139b565b949350505050565b600061229b82611391565b91506122a683611391565b92508282026122b481611391565b915082820484148315176122cb576122ca61176b565b5b5092915050565b60006122dd82611391565b91506122e883611391565b9250826122f8576122f7611802565b5b828206905092915050565b7f4e487b7100000000000000000000000000000000000000000000000000000000600052603260045260246000fdfea264697066735822122001115c41e0b785bafbaabf33777bba599c4ab19091e1797e999f4b469e9dcdc364736f6c63430008140033",
  "linkReferences": {},
  "deployedLinkReferences": {}
}