{
  "_format": "hh-sol-artifact-1",
  "contractName": "TokenSwap",
  "sourceName": "contracts/TokenSwap.sol",
  "abi": [
    {
      "inputs": [
        {
          "internalType": "address",
          "name": "_htcToken",
          "type": "address"
        },
        {
          "internalType": "uint256",
          "name": "_exchangeRate",
          "type": "uint256"
        },
        {
          "internalType": "uint256",
          "name": "_minPurchase",
          "type": "uint256"
        },
        {
          "internalType": "uint256",
          "name": "_maxPurchase",
          "type": "uint256"
        }
      ],
      "stateMutability": "nonpayable",
      "type": "constructor"
    },
    {
      "inputs": [
        {
          "internalType": "address",
          "name": "owner",
          "type": "address"
        }
      ],
      "name": "OwnableInvalidOwner",
      "type": "error"
    },
    {
      "inputs": [
        {
          "internalType": "address",
          "name": "account",
          "type": "address"
        }
      ],
      "name": "OwnableUnauthorizedAccount",
      "type": "error"
    },
    {
      "inputs": [],
      "name": "ReentrancyGuardReentrantCall",
      "type": "error"
    },
    {
      "anonymous": false,
      "inputs": [
        {
          "indexed": true,
          "internalType": "address",
          "name": "to",
          "type": "address"
        },
        {
          "indexed": false,
          "internalType": "uint256",
          "name": "amount",
          "type": "uint256"
        },
        {
          "indexed": false,
          "internalType": "uint256",
          "name": "timestamp",
          "type": "uint256"
        }
      ],
      "name": "EthWithdrawn",
      "type": "event"
    },
    {
      "anonymous": false,
      "inputs": [
        {
          "indexed": false,
          "internalType": "uint256",
          "name": "oldRate",
          "type": "uint256"
        },
        {
          "indexed": false,
          "internalType": "uint256",
          "name": "newRate",
          "type": "uint256"
        },
        {
          "indexed": false,
          "internalType": "uint256",
          "name": "timestamp",
          "type": "uint256"
        }
      ],
      "name": "ExchangeRateUpdated",
      "type": "event"
    },
    {
      "anonymous": false,
      "inputs": [
        {
          "indexed": false,
          "internalType": "uint256",
          "name": "minPurchase",
          "type": "uint256"
        },
        {
          "indexed": false,
          "internalType": "uint256",
          "name": "maxPurchase",
          "type": "uint256"
        },
        {
          "indexed": false,
          "internalType": "uint256",
          "name": "timestamp",
          "type": "uint256"
        }
      ],
      "name": "LimitsUpdated",
      "type": "event"
    },
    {
      "anonymous": false,
      "inputs": [
        {
          "indexed": true,
          "internalType": "address",
          "name": "previousOwner",
          "type": "address"
        },
        {
          "indexed": true,
          "internalType": "address",
          "name": "newOwner",
          "type": "address"
        }
      ],
      "name": "OwnershipTransferred",
      "type": "event"
    },
    {
      "anonymous": false,
      "inputs": [
        {
          "indexed": true,
          "internalType": "address",
          "name": "buyer",
          "type": "address"
        },
        {
          "indexed": false,
          "internalType": "uint256",
          "name": "ethAmount",
          "type": "uint256"
        },
        {
          "indexed": false,
          "internalType": "uint256",
          "name": "htcAmount",
          "type": "uint256"
        },
        {
          "indexed": false,
          "internalType": "uint256",
          "name": "timestamp",
          "type": "uint256"
        }
      ],
      "name": "TokensPurchased",
      "type": "event"
    },
    {
      "anonymous": false,
      "inputs": [
        {
          "indexed": true,
          "internalType": "address",
          "name": "to",
          "type": "address"
        },
        {
          "indexed": false,
          "internalType": "uint256",
          "name": "amount",
          "type": "uint256"
        },
        {
          "indexed": false,
          "internalType": "uint256",
          "name": "timestamp",
          "type": "uint256"
        }
      ],
      "name": "TokensWithdrawn",
      "type": "event"
    },
    {
      "inputs": [],
      "name": "buyTokens",
      "outputs": [],
      "stateMutability": "payable",
      "type": "function"
    },
    {
      "inputs": [
        {
          "internalType": "uint256",
          "name": "htcAmount",
          "type": "uint256"
        }
      ],
      "name": "calculateEthAmount",
      "outputs": [
        {
          "internalType": "uint256",
          "name": "",
          "type": "uint256"
        }
      ],
      "stateMutability": "view",
      "type": "function"
    },
    {
      "inputs": [
        {
          "internalType": "uint256",
          "name": "ethAmount",
          "type": "uint256"
        }
      ],
      "name": "calculateHtcAmount",
      "outputs": [
        {
          "internalType": "uint256",
          "name": "",
          "type": "uint256"
        }
      ],
      "stateMutability": "view",
      "type": "function"
    },
    {
      "inputs": [],
      "name": "exchangeRate",
      "outputs": [
        {
          "internalType": "uint256",
          "name": "",
          "type": "uint256"
        }
      ],
      "stateMutability": "view",
      "type": "function"
    },
    {
      "inputs": [],
      "name": "getStats",
      "outputs": [
        {
          "internalType": "uint256",
          "name": "contractHtcBalance",
          "type": "uint256"
        },
        {
          "internalType": "uint256",
          "name": "contractEthBalance",
          "type": "uint256"
        },
        {
          "internalType": "uint256",
          "name": "currentRate",
          "type": "uint256"
        },
        {
          "internalType": "uint256",
          "name": "totalEth",
          "type": "uint256"
        },
        {
          "internalType": "uint256",
          "name": "totalHtc",
          "type": "uint256"
        },
        {
          "internalType": "uint256",
          "name": "minBuy",
          "type": "uint256"
        },
        {
          "internalType": "uint256",
          "name": "maxBuy",
          "type": "uint256"
        }
      ],
      "stateMutability": "view",
      "type": "function"
    },
    {
      "inputs": [],
      "name": "htcToken",
      "outputs": [
        {
          "internalType": "contract IERC20",
          "name": "",
          "type": "address"
        }
      ],
      "stateMutability": "view",
      "type": "function"
    },
    {
      "inputs": [],
      "name": "maxPurchase",
      "outputs": [
        {
          "internalType": "uint256",
          "name": "",
          "type": "uint256"
        }
      ],
      "stateMutability": "view",
      "type": "function"
    },
    {
      "inputs": [],
      "name": "minPurchase",
      "outputs": [
        {
          "internalType": "uint256",
          "name": "",
          "type": "uint256"
        }
      ],
      "stateMutability": "view",
      "type": "function"
    },
    {
      "inputs": [],
      "name": "owner",
      "outputs": [
        {
          "internalType": "address",
          "name": "",
          "type": "address"
        }
      ],
      "stateMutability": "view",
      "type": "function"
    },
    {
      "inputs": [],
      "name": "renounceOwnership",
      "outputs": [],
      "stateMutability": "nonpayable",
      "type": "function"
    },
    {
      "inputs": [
        {
          "internalType": "uint256",
          "name": "newRate",
          "type": "uint256"
        }
      ],
      "name": "setExchangeRate",
      "outputs": [],
      "stateMutability": "nonpayable",
      "type": "function"
    },
    {
      "inputs": [
        {
          "internalType": "uint256",
          "name": "_minPurchase",
          "type": "uint256"
        },
        {
          "internalType": "uint256",
          "name": "_maxPurchase",
          "type": "uint256"
        }
      ],
      "name": "setLimits",
      "outputs": [],
      "stateMutability": "nonpayable",
      "type": "function"
    },
    {
      "inputs": [],
      "name": "totalEthCollected",
      "outputs": [
        {
          "internalType": "uint256",
          "name": "",
          "type": "uint256"
        }
      ],
      "stateMutability": "view",
      "type": "function"
    },
    {
      "inputs": [],
      "name": "totalHtcSold",
      "outputs": [
        {
          "internalType": "uint256",
          "name": "",
          "type": "uint256"
        }
      ],
      "stateMutability": "view",
      "type": "function"
    },
    {
      "inputs": [
        {
          "internalType": "address",
          "name": "newOwner",
          "type": "address"
        }
      ],
      "name": "transferOwnership",
      "outputs": [],
      "stateMutability": "nonpayable",
      "type": "function"
    },
    {
      "inputs": [
        {
          "internalType": "address payable",
          "name": "to",
          "type": "address"
        },
        {
          "internalType": "uint256",
          "name": "amount",
          "type": "uint256"
        }
      ],
      "name": "withdrawEth",
      "outputs": [],
      "stateMutability": "nonpayable",
      "type": "function"
    },
    {
      "inputs": [
        {
          "internalType": "address",
          "name": "to",
          "type": "address"
        },
        {
          "internalType": "uint256",
          "name": "amount",
          "type": "uint256"
        }
      ],
      "name": "withdrawTokens",
      "outputs": [],
      "stateMutability": "nonpayable",
      "type": "function"
    },
    {
      "stateMutability": "payable",
      "type": "receive"
    }
  ],
  "bytecode": "0x60a06040523480156200001157600080fd5b5060405162001eca38038062001eca833981810160405281019062000037919062000380565b33600073ffffffffffffffffffffffffffffffffffffffff168173ffffffffffffffffffffffffffffffffffffffff1603620000ad5760006040517f1e4fbdf7000000000000000000000000000000000000000000000000000000008152600401620000a4919062000403565b60405180910390fd5b620000be816200021760201b60201c565b5060018081905550600073ffffffffffffffffffffffffffffffffffffffff168473ffffffffffffffffffffffffffffffffffffffff160362000138576040517f08c379a00000000000000000000000000000000000000000000000000000000081526004016200012f9062000481565b60405180910390fd5b600083116200017e576040517f08c379a00000000000000000000000000000000000000000000000000000000081526004016200017590620004f3565b60405180910390fd5b81811015620001c4576040517f08c379a0000000000000000000000000000000000000000000000000000000008152600401620001bb9062000565565b60405180910390fd5b8373ffffffffffffffffffffffffffffffffffffffff1660808173ffffffffffffffffffffffffffffffffffffffff16815250508260028190555081600381905550806004819055505050505062000587565b60008060009054906101000a900473ffffffffffffffffffffffffffffffffffffffff169050816000806101000a81548173ffffffffffffffffffffffffffffffffffffffff021916908373ffffffffffffffffffffffffffffffffffffffff1602179055508173ffffffffffffffffffffffffffffffffffffffff168173ffffffffffffffffffffffffffffffffffffffff167f8be0079c531659141344cd1fd0a4f28419497f9722a3daafe3b4186f6b6457e060405160405180910390a35050565b600080fd5b600073ffffffffffffffffffffffffffffffffffffffff82169050919050565b60006200030d82620002e0565b9050919050565b6200031f8162000300565b81146200032b57600080fd5b50565b6000815190506200033f8162000314565b92915050565b6000819050919050565b6200035a8162000345565b81146200036657600080fd5b50565b6000815190506200037a816200034f565b92915050565b600080600080608085870312156200039d576200039c620002db565b5b6000620003ad878288016200032e565b9450506020620003c08782880162000369565b9350506040620003d38782880162000369565b9250506060620003e68782880162000369565b91505092959194509250565b620003fd8162000300565b82525050565b60006020820190506200041a6000830184620003f2565b92915050565b600082825260208201905092915050565b7f496e76616c696420746f6b656e20616464726573730000000000000000000000600082015250565b60006200046960158362000420565b9150620004768262000431565b602082019050919050565b600060208201905081810360008301526200049c816200045a565b9050919050565b7f52617465206d757374206265203e203000000000000000000000000000000000600082015250565b6000620004db60108362000420565b9150620004e882620004a3565b602082019050919050565b600060208201905081810360008301526200050e81620004cc565b9050919050565b7f4d6178206d757374206265203e3d206d696e0000000000000000000000000000600082015250565b60006200054d60128362000420565b91506200055a8262000515565b602082019050919050565b6000602082019050818103600083015262000580816200053e565b9050919050565b60805161190b620005bf6000396000818161044f015281816107f8015281816108bf01528181610a3f0152610b52015261190b6000f3fe6080604052600436106101025760003560e01c80638da5cb5b11610095578063c59d484711610064578063c59d48471461031c578063ce2a9f621461034d578063d0febe4c14610378578063db068e0e14610382578063f2fde38b146103ab57610109565b80638da5cb5b14610272578063977b055b1461029d578063abadb62b146102c8578063c4590d3f146102f357610109565b806334113310116100d157806334113310146101b65780633ba0b9a9146101f3578063715018a61461021e5780638542bdff1461023557610109565b806306b091f91461010e5780630966be2b146101375780631b9a91a41461016257806333b5b62e1461018b57610109565b3661010957005b600080fd5b34801561011a57600080fd5b5061013560048036038101906101309190610fe8565b6103d4565b005b34801561014357600080fd5b5061014c610582565b6040516101599190611037565b60405180910390f35b34801561016e57600080fd5b5061018960048036038101906101849190611090565b610588565b005b34801561019757600080fd5b506101a0610753565b6040516101ad9190611037565b60405180910390f35b3480156101c257600080fd5b506101dd60048036038101906101d891906110d0565b610759565b6040516101ea9190611037565b60405180910390f35b3480156101ff57600080fd5b50610208610783565b6040516102159190611037565b60405180910390f35b34801561022a57600080fd5b50610233610789565b005b34801561024157600080fd5b5061025c600480360381019061025791906110d0565b61079d565b6040516102699190611037565b60405180910390f35b34801561027e57600080fd5b506102876107c7565b604051610294919061110c565b60405180910390f35b3480156102a957600080fd5b506102b26107f0565b6040516102bf9190611037565b60405180910390f35b3480156102d457600080fd5b506102dd6107f6565b6040516102ea9190611186565b60405180910390f35b3480156102ff57600080fd5b5061031a600480360381019061031591906111a1565b61081a565b005b34801561032857600080fd5b506103316108b2565b60405161034497969594939291906111e1565b60405180910390f35b34801561035957600080fd5b5061036261097e565b60405161036f9190611037565b60405180910390f35b610380610984565b005b34801561038e57600080fd5b506103a960048036038101906103a491906110d0565b610c8f565b005b3480156103b757600080fd5b506103d260048036038101906103cd9190611250565b610d27565b005b6103dc610dad565b600073ffffffffffffffffffffffffffffffffffffffff168273ffffffffffffffffffffffffffffffffffffffff160361044b576040517f08c379a0000000000000000000000000000000000000000000000000000000008152600401610442906112da565b60405180910390fd5b60007f000000000000000000000000000000000000000000000000000000000000000073ffffffffffffffffffffffffffffffffffffffff1663a9059cbb84846040518363ffffffff1660e01b81526004016104a89291906112fa565b6020604051808303816000875af11580156104c7573d6000803e3d6000fd5b505050506040513d601f19601f820116820180604052508101906104eb919061135b565b90508061052d576040517f08c379a0000000000000000000000000000000000000000000000000000000008152600401610524906113d4565b60405180910390fd5b8273ffffffffffffffffffffffffffffffffffffffff167fffe903c0abe6b2dbb2f3474ef43d7a3c1fca49e5a774453423ca8e1952aabffa83426040516105759291906113f4565b60405180910390a2505050565b60065481565b610590610dad565b610598610e34565b600073ffffffffffffffffffffffffffffffffffffffff168273ffffffffffffffffffffffffffffffffffffffff1603610607576040517f08c379a00000000000000000000000000000000000000000000000000000000081526004016105fe906112da565b60405180910390fd5b4781111561064a576040517f08c379a000000000000000000000000000000000000000000000000000000000815260040161064190611469565b60405180910390fd5b60008273ffffffffffffffffffffffffffffffffffffffff1682604051610670906114ba565b60006040518083038185875af1925050503d80600081146106ad576040519150601f19603f3d011682016040523d82523d6000602084013e6106b2565b606091505b50509050806106f6576040517f08c379a00000000000000000000000000000000000000000000000000000000081526004016106ed9061151b565b60405180910390fd5b8273ffffffffffffffffffffffffffffffffffffffff167f7b4c04a6b3225fb798a519b1a97ce524a26a8b1e23aa2285e7a70768cab85f24834260405161073e9291906113f4565b60405180910390a25061074f610e7a565b5050565b60035481565b6000670de0b6b3a764000060025483610772919061156a565b61077c91906115db565b9050919050565b60025481565b610791610dad565b61079b6000610e83565b565b6000600254670de0b6b3a7640000836107b6919061156a565b6107c091906115db565b9050919050565b60008060009054906101000a900473ffffffffffffffffffffffffffffffffffffffff16905090565b60045481565b7f000000000000000000000000000000000000000000000000000000000000000081565b610822610dad565b81811015610865576040517f08c379a000000000000000000000000000000000000000000000000000000000815260040161085c90611658565b60405180910390fd5b81600381905550806004819055507faa2ef8ba434f2f6bdaad3fcc2d5c35f02b08a47173c94877259407614bc46b558282426040516108a693929190611678565b60405180910390a15050565b60008060008060008060007f000000000000000000000000000000000000000000000000000000000000000073ffffffffffffffffffffffffffffffffffffffff166370a08231306040518263ffffffff1660e01b8152600401610916919061110c565b602060405180830381865afa158015610933573d6000803e3d6000fd5b505050506040513d601f19601f8201168201806040525081019061095791906116c4565b47600254600554600654600354600454965096509650965096509650965090919293949596565b60055481565b61098c610e34565b6003543410156109d1576040517f08c379a00000000000000000000000000000000000000000000000000000000081526004016109c89061173d565b60405180910390fd5b600454341115610a16576040517f08c379a0000000000000000000000000000000000000000000000000000000008152600401610a0d906117a9565b60405180910390fd5b6000670de0b6b3a764000060025434610a2f919061156a565b610a3991906115db565b905060007f000000000000000000000000000000000000000000000000000000000000000073ffffffffffffffffffffffffffffffffffffffff166370a08231306040518263ffffffff1660e01b8152600401610a96919061110c565b602060405180830381865afa158015610ab3573d6000803e3d6000fd5b505050506040513d601f19601f82011682018060405250810190610ad791906116c4565b905081811015610b1c576040517f08c379a0000000000000000000000000000000000000000000000000000000008152600401610b1390611815565b60405180910390fd5b3460056000828254610b2e9190611835565b925050819055508160066000828254610b479190611835565b9250508190555060007f000000000000000000000000000000000000000000000000000000000000000073ffffffffffffffffffffffffffffffffffffffff1663a9059cbb33856040518363ffffffff1660e01b8152600401610bab9291906112fa565b6020604051808303816000875af1158015610bca573d6000803e3d6000fd5b505050506040513d601f19601f82011682018060405250810190610bee919061135b565b905080610c30576040517f08c379a0000000000000000000000000000000000000000000000000000000008152600401610c27906113d4565b60405180910390fd5b3373ffffffffffffffffffffffffffffffffffffffff167f0d1a0d5e3d583a0e92588799dd06e50fd78c07daf05f0cc06d7b848b1ca445f1348542604051610c7a93929190611678565b60405180910390a2505050610c8d610e7a565b565b610c97610dad565b60008111610cda576040517f08c379a0000000000000000000000000000000000000000000000000000000008152600401610cd1906118b5565b60405180910390fd5b60006002549050816002819055507f4a84129ac58651279fc65719b27818bccdff5de9a6efebaab1616a6d2f90bf24818342604051610d1b93929190611678565b60405180910390a15050565b610d2f610dad565b600073ffffffffffffffffffffffffffffffffffffffff168173ffffffffffffffffffffffffffffffffffffffff1603610da15760006040517f1e4fbdf7000000000000000000000000000000000000000000000000000000008152600401610d98919061110c565b60405180910390fd5b610daa81610e83565b50565b610db5610f47565b73ffffffffffffffffffffffffffffffffffffffff16610dd36107c7565b73ffffffffffffffffffffffffffffffffffffffff1614610e3257610df6610f47565b6040517f118cdaa7000000000000000000000000000000000000000000000000000000008152600401610e29919061110c565b60405180910390fd5b565b600260015403610e70576040517f3ee5aeb500000000000000000000000000000000000000000000000000000000815260040160405180910390fd5b6002600181905550565b60018081905550565b60008060009054906101000a900473ffffffffffffffffffffffffffffffffffffffff169050816000806101000a81548173ffffffffffffffffffffffffffffffffffffffff021916908373ffffffffffffffffffffffffffffffffffffffff1602179055508173ffffffffffffffffffffffffffffffffffffffff168173ffffffffffffffffffffffffffffffffffffffff167f8be0079c531659141344cd1fd0a4f28419497f9722a3daafe3b4186f6b6457e060405160405180910390a35050565b600033905090565b600080fd5b600073ffffffffffffffffffffffffffffffffffffffff82169050919050565b6000610f7f82610f54565b9050919050565b610f8f81610f74565b8114610f9a57600080fd5b50565b600081359050610fac81610f86565b92915050565b6000819050919050565b610fc581610fb2565b8114610fd057600080fd5b50565b600081359050610fe281610fbc565b92915050565b60008060408385031215610fff57610ffe610f4f565b5b600061100d85828601610f9d565b925050602061101e85828601610fd3565b9150509250929050565b61103181610fb2565b82525050565b600060208201905061104c6000830184611028565b92915050565b600061105d82610f54565b9050919050565b61106d81611052565b811461107857600080fd5b50565b60008135905061108a81611064565b92915050565b600080604083850312156110a7576110a6610f4f565b5b60006110b58582860161107b565b92505060206110c685828601610fd3565b9150509250929050565b6000602082840312156110e6576110e5610f4f565b5b60006110f484828501610fd3565b91505092915050565b61110681610f74565b82525050565b600060208201905061112160008301846110fd565b92915050565b6000819050919050565b600061114c61114761114284610f54565b611127565b610f54565b9050919050565b600061115e82611131565b9050919050565b600061117082611153565b9050919050565b61118081611165565b82525050565b600060208201905061119b6000830184611177565b92915050565b600080604083850312156111b8576111b7610f4f565b5b60006111c685828601610fd3565b92505060206111d785828601610fd3565b9150509250929050565b600060e0820190506111f6600083018a611028565b6112036020830189611028565b6112106040830188611028565b61121d6060830187611028565b61122a6080830186611028565b61123760a0830185611028565b61124460c0830184611028565b98975050505050505050565b60006020828403121561126657611265610f4f565b5b600061127484828501610f9d565b91505092915050565b600082825260208201905092915050565b7f496e76616c696420616464726573730000000000000000000000000000000000600082015250565b60006112c4600f8361127d565b91506112cf8261128e565b602082019050919050565b600060208201905081810360008301526112f3816112b7565b9050919050565b600060408201905061130f60008301856110fd565b61131c6020830184611028565b9392505050565b60008115159050919050565b61133881611323565b811461134357600080fd5b50565b6000815190506113558161132f565b92915050565b60006020828403121561137157611370610f4f565b5b600061137f84828501611346565b91505092915050565b7f546f6b656e207472616e73666572206661696c65640000000000000000000000600082015250565b60006113be60158361127d565b91506113c982611388565b602082019050919050565b600060208201905081810360008301526113ed816113b1565b9050919050565b60006040820190506114096000830185611028565b6114166020830184611028565b9392505050565b7f496e73756666696369656e742062616c616e6365000000000000000000000000600082015250565b600061145360148361127d565b915061145e8261141d565b602082019050919050565b6000602082019050818103600083015261148281611446565b9050919050565b600081905092915050565b50565b60006114a4600083611489565b91506114af82611494565b600082019050919050565b60006114c582611497565b9150819050919050565b7f455448207472616e73666572206661696c656400000000000000000000000000600082015250565b600061150560138361127d565b9150611510826114cf565b602082019050919050565b60006020820190508181036000830152611534816114f8565b9050919050565b7f4e487b7100000000000000000000000000000000000000000000000000000000600052601160045260246000fd5b600061157582610fb2565b915061158083610fb2565b925082820261158e81610fb2565b915082820484148315176115a5576115a461153b565b5b5092915050565b7f4e487b7100000000000000000000000000000000000000000000000000000000600052601260045260246000fd5b60006115e682610fb2565b91506115f183610fb2565b925082611601576116006115ac565b5b828204905092915050565b7f4d6178206d757374206265203e3d206d696e0000000000000000000000000000600082015250565b600061164260128361127d565b915061164d8261160c565b602082019050919050565b6000602082019050818103600083015261167181611635565b9050919050565b600060608201905061168d6000830186611028565b61169a6020830185611028565b6116a76040830184611028565b949350505050565b6000815190506116be81610fbc565b92915050565b6000602082840312156116da576116d9610f4f565b5b60006116e8848285016116af565b91505092915050565b7f42656c6f77206d696e696d756d20707572636861736500000000000000000000600082015250565b600061172760168361127d565b9150611732826116f1565b602082019050919050565b600060208201905081810360008301526117568161171a565b9050919050565b7f45786365656473206d6178696d756d2070757263686173650000000000000000600082015250565b600061179360188361127d565b915061179e8261175d565b602082019050919050565b600060208201905081810360008301526117c281611786565b9050919050565b7f496e73756666696369656e742048544320696e20636f6e747261637400000000600082015250565b60006117ff601c8361127d565b915061180a826117c9565b602082019050919050565b6000602082019050818103600083015261182e816117f2565b9050919050565b600061184082610fb2565b915061184b83610fb2565b92508282019050808211156118635761186261153b565b5b92915050565b7f52617465206d757374206265203e203000000000000000000000000000000000600082015250565b600061189f60108361127d565b91506118aa82611869565b602082019050919050565b600060208201905081810360008301526118ce81611892565b905091905056fea264697066735822122007292aba03eb9d9f93c67f2ffdc2876f81c264046576af9d175e44b3e3f0a54c64736f6c63430008140033",
  "linkReferences": {},
  "deployedLinkReferences": {}
}